{
  "contractName": "Renting",
  "abi": [
    {
      "constant": false,
      "inputs": [
        {
          "name": "account",
          "type": "address"
        }
      ],
      "name": "addWhitelisted",
      "outputs": [],
      "payable": false,
      "stateMutability": "nonpayable",
      "type": "function"
    },
    {
      "constant": false,
      "inputs": [
        {
          "name": "account",
          "type": "address"
        }
      ],
      "name": "removeWhitelisted",
      "outputs": [],
      "payable": false,
      "stateMutability": "nonpayable",
      "type": "function"
    },
    {
      "constant": true,
      "inputs": [
        {
          "name": "account",
          "type": "address"
        }
      ],
      "name": "isWhitelisted",
      "outputs": [
        {
          "name": "",
          "type": "bool"
        }
      ],
      "payable": false,
      "stateMutability": "view",
      "type": "function"
    },
    {
      "constant": true,
      "inputs": [
        {
          "name": "",
          "type": "uint256"
        }
      ],
      "name": "whitelistedAddress",
      "outputs": [
        {
          "name": "",
          "type": "address"
        }
      ],
      "payable": false,
      "stateMutability": "view",
      "type": "function"
    },
    {
      "constant": false,
      "inputs": [],
      "name": "renounceWhitelistAdmin",
      "outputs": [],
      "payable": false,
      "stateMutability": "nonpayable",
      "type": "function"
    },
    {
      "constant": true,
      "inputs": [],
      "name": "whitelistedAmount",
      "outputs": [
        {
          "name": "",
          "type": "uint256"
        }
      ],
      "payable": false,
      "stateMutability": "view",
      "type": "function"
    },
    {
      "constant": true,
      "inputs": [],
      "name": "superAdminAmount",
      "outputs": [
        {
          "name": "",
          "type": "uint256"
        }
      ],
      "payable": false,
      "stateMutability": "view",
      "type": "function"
    },
    {
      "constant": false,
      "inputs": [
        {
          "name": "account",
          "type": "address"
        }
      ],
      "name": "addSuperAdmin",
      "outputs": [],
      "payable": false,
      "stateMutability": "nonpayable",
      "type": "function"
    },
    {
      "constant": true,
      "inputs": [
        {
          "name": "account",
          "type": "address"
        }
      ],
      "name": "isSuperAdmin",
      "outputs": [
        {
          "name": "",
          "type": "bool"
        }
      ],
      "payable": false,
      "stateMutability": "view",
      "type": "function"
    },
    {
      "anonymous": false,
      "inputs": [
        {
          "indexed": true,
          "name": "id",
          "type": "uint256"
        },
        {
          "indexed": true,
          "name": "user",
          "type": "address"
        },
        {
          "indexed": false,
          "name": "rentedFrom",
          "type": "uint256"
        },
        {
          "indexed": false,
          "name": "rentedUntil",
          "type": "uint256"
        },
        {
          "indexed": true,
          "name": "totalPrice",
          "type": "uint256"
        }
      ],
      "name": "LogRented",
      "type": "event"
    },
    {
      "anonymous": false,
      "inputs": [
        {
          "indexed": true,
          "name": "id",
          "type": "uint256"
        },
        {
          "indexed": true,
          "name": "perPrice",
          "type": "uint256"
        }
      ],
      "name": "LogNewPlace",
      "type": "event"
    },
    {
      "anonymous": false,
      "inputs": [
        {
          "indexed": true,
          "name": "id",
          "type": "uint256"
        }
      ],
      "name": "LogRmPlace",
      "type": "event"
    },
    {
      "anonymous": false,
      "inputs": [
        {
          "indexed": true,
          "name": "id",
          "type": "uint256"
        }
      ],
      "name": "LogFreeToStop",
      "type": "event"
    },
    {
      "anonymous": false,
      "inputs": [
        {
          "indexed": true,
          "name": "id",
          "type": "uint256"
        }
      ],
      "name": "LogStopToFree",
      "type": "event"
    },
    {
      "anonymous": false,
      "inputs": [
        {
          "indexed": true,
          "name": "id",
          "type": "uint256"
        },
        {
          "indexed": false,
          "name": "beforeBegin",
          "type": "uint256"
        },
        {
          "indexed": false,
          "name": "beforeEnd",
          "type": "uint256"
        }
      ],
      "name": "LogWorkToFree",
      "type": "event"
    },
    {
      "anonymous": false,
      "inputs": [
        {
          "indexed": true,
          "name": "id",
          "type": "uint256"
        },
        {
          "indexed": false,
          "name": "begin",
          "type": "uint256"
        },
        {
          "indexed": false,
          "name": "end",
          "type": "uint256"
        },
        {
          "indexed": true,
          "name": "user",
          "type": "address"
        },
        {
          "indexed": true,
          "name": "totalPrice",
          "type": "uint256"
        }
      ],
      "name": "LogFreeToWork",
      "type": "event"
    },
    {
      "anonymous": false,
      "inputs": [
        {
          "indexed": true,
          "name": "account",
          "type": "address"
        }
      ],
      "name": "WhitelistedAdded",
      "type": "event"
    },
    {
      "anonymous": false,
      "inputs": [
        {
          "indexed": true,
          "name": "account",
          "type": "address"
        }
      ],
      "name": "WhitelistedRemoved",
      "type": "event"
    },
    {
      "anonymous": false,
      "inputs": [
        {
          "indexed": true,
          "name": "account",
          "type": "address"
        }
      ],
      "name": "SuperAdminAdded",
      "type": "event"
    },
    {
      "anonymous": false,
      "inputs": [
        {
          "indexed": true,
          "name": "account",
          "type": "address"
        }
      ],
      "name": "SuperAdminRemoved",
      "type": "event"
    },
    {
      "constant": false,
      "inputs": [
        {
          "name": "_id",
          "type": "uint256"
        },
        {
          "name": "_perPrice",
          "type": "uint256"
        }
      ],
      "name": "addPlace",
      "outputs": [],
      "payable": false,
      "stateMutability": "nonpayable",
      "type": "function"
    },
    {
      "constant": false,
      "inputs": [
        {
          "name": "_id",
          "type": "uint256"
        }
      ],
      "name": "rmPlace",
      "outputs": [],
      "payable": false,
      "stateMutability": "nonpayable",
      "type": "function"
    },
    {
      "constant": false,
      "inputs": [
        {
          "name": "_id",
          "type": "uint256"
        }
      ],
      "name": "stopPlace",
      "outputs": [],
      "payable": false,
      "stateMutability": "nonpayable",
      "type": "function"
    },
    {
      "constant": false,
      "inputs": [
        {
          "name": "_id",
          "type": "uint256"
        }
      ],
      "name": "unStopPlace",
      "outputs": [],
      "payable": false,
      "stateMutability": "nonpayable",
      "type": "function"
    },
    {
      "constant": false,
      "inputs": [
        {
          "name": "amount",
          "type": "uint256"
        }
      ],
      "name": "withdraw",
      "outputs": [],
      "payable": false,
      "stateMutability": "nonpayable",
      "type": "function"
    },
    {
      "constant": false,
      "inputs": [
        {
          "name": "_id",
          "type": "uint256"
        },
        {
          "name": "_secondsToRent",
          "type": "uint256"
        }
      ],
      "name": "rent",
      "outputs": [],
      "payable": true,
      "stateMutability": "payable",
      "type": "function"
    },
    {
      "constant": false,
      "inputs": [
        {
          "name": "_id",
          "type": "uint256"
        }
      ],
      "name": "upgradePlaceStatus",
      "outputs": [],
      "payable": false,
      "stateMutability": "nonpayable",
      "type": "function"
    },
    {
      "constant": false,
      "inputs": [],
      "name": "upgradeAllPlaceStatus",
      "outputs": [],
      "payable": false,
      "stateMutability": "nonpayable",
      "type": "function"
    },
    {
      "constant": false,
      "inputs": [
        {
          "name": "_a",
          "type": "uint256"
        },
        {
          "name": "_b",
          "type": "uint256"
        }
      ],
      "name": "upgradeAllPlaceStatus2",
      "outputs": [],
      "payable": false,
      "stateMutability": "nonpayable",
      "type": "function"
    },
    {
      "constant": true,
      "inputs": [
        {
          "name": "_id",
          "type": "uint256"
        },
        {
          "name": "_secondsToRent",
          "type": "uint256"
        }
      ],
      "name": "getPrice",
      "outputs": [
        {
          "name": "",
          "type": "uint256"
        }
      ],
      "payable": false,
      "stateMutability": "view",
      "type": "function"
    },
    {
      "constant": true,
      "inputs": [
        {
          "name": "_status",
          "type": "uint8"
        }
      ],
      "name": "getStateCount",
      "outputs": [
        {
          "name": "",
          "type": "uint256"
        }
      ],
      "payable": false,
      "stateMutability": "view",
      "type": "function"
    },
    {
      "constant": true,
      "inputs": [],
      "name": "getTotalAmount",
      "outputs": [
        {
          "name": "",
          "type": "uint256"
        }
      ],
      "payable": false,
      "stateMutability": "view",
      "type": "function"
    },
    {
      "constant": true,
      "inputs": [
        {
          "name": "_index",
          "type": "uint256"
        }
      ],
      "name": "getIdFromIndex",
      "outputs": [
        {
          "name": "",
          "type": "uint256"
        }
      ],
      "payable": false,
      "stateMutability": "view",
      "type": "function"
    },
    {
      "constant": true,
      "inputs": [
        {
          "name": "_id",
          "type": "uint256"
        }
      ],
      "name": "getPlaceInfo",
      "outputs": [
        {
          "name": "_status",
          "type": "uint8"
        },
        {
          "name": "_user",
          "type": "address"
        },
        {
          "name": "_begin",
          "type": "uint256"
        },
        {
          "name": "_end",
          "type": "uint256"
        },
        {
          "name": "_perPrice",
          "type": "uint256"
        }
      ],
      "payable": false,
      "stateMutability": "view",
      "type": "function"
    },
    {
      "constant": true,
      "inputs": [
        {
          "name": "_id",
          "type": "uint256"
        }
      ],
      "name": "getPlaceState",
      "outputs": [
        {
          "name": "",
          "type": "uint8"
        }
      ],
      "payable": false,
      "stateMutability": "view",
      "type": "function"
    },
    {
      "constant": true,
      "inputs": [
        {
          "name": "_id",
          "type": "uint256"
        }
      ],
      "name": "getPlaceUser",
      "outputs": [
        {
          "name": "",
          "type": "address"
        }
      ],
      "payable": false,
      "stateMutability": "view",
      "type": "function"
    },
    {
      "constant": true,
      "inputs": [
        {
          "name": "_id",
          "type": "uint256"
        }
      ],
      "name": "getPlaceBegin",
      "outputs": [
        {
          "name": "",
          "type": "uint256"
        }
      ],
      "payable": false,
      "stateMutability": "view",
      "type": "function"
    },
    {
      "constant": true,
      "inputs": [
        {
          "name": "_id",
          "type": "uint256"
        }
      ],
      "name": "getPlaceEnd",
      "outputs": [
        {
          "name": "",
          "type": "uint256"
        }
      ],
      "payable": false,
      "stateMutability": "view",
      "type": "function"
    },
    {
      "constant": true,
      "inputs": [
        {
          "name": "_id",
          "type": "uint256"
        }
      ],
      "name": "getPlacePerPrice",
      "outputs": [
        {
          "name": "",
          "type": "uint256"
        }
      ],
      "payable": false,
      "stateMutability": "view",
      "type": "function"
    },
    {
      "constant": true,
      "inputs": [
        {
          "name": "_id",
          "type": "uint256"
        }
      ],
      "name": "isPlaceExist",
      "outputs": [
        {
          "name": "",
          "type": "bool"
        }
      ],
      "payable": false,
      "stateMutability": "view",
      "type": "function"
    }
  ],
  "bytecode": "0x60806040526200001e3362000024640100000000026401000000009004565b62000350565b62000048816000620000b46401000000000262002c34179091906401000000009004565b6200006d60018054620001a36401000000000262002ab7179091906401000000009004565b508073ffffffffffffffffffffffffffffffffffffffff167f286f82d2b1e37b5e9f33e455d014b4a5f6c29388e6e41e1281d4c83e04f4265560405160405180910390a250565b620000cf82826200022c640100000000026401000000009004565b15151562000145576040517f08c379a000000000000000000000000000000000000000000000000000000000815260040180806020018281038252601f8152602001807f526f6c65733a206163636f756e7420616c72656164792068617320726f6c650081525060200191505060405180910390fd5b60018260000160008373ffffffffffffffffffffffffffffffffffffffff1673ffffffffffffffffffffffffffffffffffffffff16815260200190815260200160002060006101000a81548160ff0219169083151502179055505050565b6000818301905082811015151562000223576040517f08c379a00000000000000000000000000000000000000000000000000000000081526004018080602001828103825260138152602001807f536166654d61746820616464206661696c65640000000000000000000000000081525060200191505060405180910390fd5b80905092915050565b60008073ffffffffffffffffffffffffffffffffffffffff168273ffffffffffffffffffffffffffffffffffffffff1614151515620002f9576040517f08c379a00000000000000000000000000000000000000000000000000000000081526004018080602001828103825260228152602001807f526f6c65733a206163636f756e7420697320746865207a65726f20616464726581526020017f737300000000000000000000000000000000000000000000000000000000000081525060400191505060405180910390fd5b8260000160008373ffffffffffffffffffffffffffffffffffffffff1673ffffffffffffffffffffffffffffffffffffffff16815260200190815260200160002060009054906101000a900460ff16905092915050565b612ebc80620003606000396000f300608060405260043610610175576000357c0100000000000000000000000000000000000000000000000000000000900463ffffffff168063046f354e1461017a57806310154bad1461019157806311fea91c146101d4578063120a4c171461021557806318085621146102425780631b1a478b14610279578063291d9549146102bd5780632e1a7d4d146103005780633af32abf1461032d5780633f62414b146103885780634a0283d6146103d75780634c5a628c146104445780635a76bb5b1461045b5780635cf4ee91146104a05780635d287bfa146104eb57806365ac43411461058257806367c67e48146105ad578063783a112b1461061a5780639f49003c14610644578063a0d622b21461066f578063a61d5f2c1461069a578063aacaf766146106c7578063af990976146106fe578063b2b4139e1461073f578063b3292ff01461076c578063b43d5107146107af578063b95493fd146107f0578063d214fb551461081d578063df7f453b1461085e575b600080fd5b34801561018657600080fd5b5061018f6108b9565b005b34801561019d57600080fd5b506101d2600480360381019080803573ffffffffffffffffffffffffffffffffffffffff169060200190929190505050610904565b005b3480156101e057600080fd5b506101ff600480360381019080803590602001909291905050506109b3565b6040518082815260200191505060405180910390f35b34801561022157600080fd5b5061024060048036038101908080359060200190929190505050610a52565b005b34801561024e57600080fd5b506102776004803603810190808035906020019092919080359060200190929190505050610c24565b005b34801561028557600080fd5b506102a7600480360381019080803560ff169060200190929190505050610d5f565b6040518082815260200191505060405180910390f35b3480156102c957600080fd5b506102fe600480360381019080803573ffffffffffffffffffffffffffffffffffffffff169060200190929190505050610df9565b005b34801561030c57600080fd5b5061032b60048036038101908080359060200190929190505050610ea8565b005b34801561033957600080fd5b5061036e600480360381019080803573ffffffffffffffffffffffffffffffffffffffff169060200190929190505050610f95565b604051808215151515815260200191505060405180910390f35b34801561039457600080fd5b506103b360048036038101908080359060200190929190505050610fb2565b604051808260028111156103c357fe5b60ff16815260200191505060405180910390f35b3480156103e357600080fd5b506104026004803603810190808035906020019092919050505061105c565b604051808273ffffffffffffffffffffffffffffffffffffffff1673ffffffffffffffffffffffffffffffffffffffff16815260200191505060405180910390f35b34801561045057600080fd5b5061045961109a565b005b34801561046757600080fd5b506104866004803603810190808035906020019092919050505061111e565b604051808215151515815260200191505060405180910390f35b3480156104ac57600080fd5b506104d56004803603810190808035906020019092919080359060200190929190505050611152565b6040518082815260200191505060405180910390f35b3480156104f757600080fd5b506105166004803603810190808035906020019092919050505061121b565b6040518086600281111561052657fe5b60ff1681526020018573ffffffffffffffffffffffffffffffffffffffff1673ffffffffffffffffffffffffffffffffffffffff1681526020018481526020018381526020018281526020019550505050505060405180910390f35b34801561058e57600080fd5b50610597611353565b6040518082815260200191505060405180910390f35b3480156105b957600080fd5b506105d860048036038101908080359060200190929190505050611360565b604051808273ffffffffffffffffffffffffffffffffffffffff1673ffffffffffffffffffffffffffffffffffffffff16815260200191505060405180910390f35b610642600480360381019080803590602001909291908035906020019092919050505061141d565b005b34801561065057600080fd5b506106596117e7565b6040518082815260200191505060405180910390f35b34801561067b57600080fd5b506106846117f4565b6040518082815260200191505060405180910390f35b3480156106a657600080fd5b506106c5600480360381019080803590602001909291905050506117fe565b005b3480156106d357600080fd5b506106fc6004803603810190808035906020019092919080359060200190929190505050611a46565b005b34801561070a57600080fd5b5061072960048036038101908080359060200190929190505050611d57565b6040518082815260200191505060405180910390f35b34801561074b57600080fd5b5061076a60048036038101908080359060200190929190505050611df4565b005b34801561077857600080fd5b506107ad600480360381019080803573ffffffffffffffffffffffffffffffffffffffff169060200190929190505050612104565b005b3480156107bb57600080fd5b506107da600480360381019080803590602001909291905050506121b3565b6040518082815260200191505060405180910390f35b3480156107fc57600080fd5b5061081b60048036038101908080359060200190929190505050612250565b005b34801561082957600080fd5b5061084860048036038101908080359060200190929190505050612498565b6040518082815260200191505060405180910390f35b34801561086a57600080fd5b5061089f600480360381019080803573ffffffffffffffffffffffffffffffffffffffff169060200190929190505050612535565b604051808215151515815260200191505060405180910390f35b600080600091505b600580549050821015610900576005828154811015156108dd57fe5b906000526020600020015490506108f381610a52565b81806001019250506108c1565b5050565b61090d33612535565b15156109a7576040517f08c379a00000000000000000000000000000000000000000000000000000000081526004018080602001828103825260388152602001807f537570657241646d696e526f6c653a2063616c6c657220646f6573206e6f742081526020017f686176652074686520537570657241646d696e20726f6c65000000000000000081525060400191505060405180910390fd5b6109b081612552565b50565b600060058054905082101515610a31576040517f08c379a000000000000000000000000000000000000000000000000000000000815260040180806020018281038252600c8152602001807f6572726f72205f696e646578000000000000000000000000000000000000000081525060200191505060405180910390fd5b600582815481101515610a4057fe5b90600052602060002001549050919050565b600080610a5e8361111e565b1515610ad2576040517f08c379a000000000000000000000000000000000000000000000000000000000815260040180806020018281038252601a8152602001807f74686520506c61636520696420646f65736e277420657869737400000000000081525060200191505060405180910390fd5b600280811115610ade57fe5b6004600085815260200190815260200160002060010160009054906101000a900460ff166002811115610b0d57fe5b141515610b1957610c1f565b4260046000858152602001908152602001600020600301541115610b3c57610c1f565b60016004600085815260200190815260200160002060010160006101000a81548160ff02191690836002811115610b6f57fe5b021790555060046000848152602001908152602001600020600201549150600460008481526020019081526020016000206003015490506000600460008581526020019081526020016000206002018190555060006004600085815260200190815260200160002060030181905550827f25480c4d2c567fed8a09796de977d044e3740261be580198edb7149a72b7a43c8383604051808381526020018281526020019250505060405180910390a25b505050565b6000808284101515610c9e576040517f08c379a000000000000000000000000000000000000000000000000000000000815260040180806020018281038252600b8152602001807f6572726f72206f7264657200000000000000000000000000000000000000000081525060200191505060405180910390fd5b60058054905083101515610d1a576040517f08c379a000000000000000000000000000000000000000000000000000000000815260040180806020018281038252601e8152602001807f73686f756c6420736d616c6c6572207468616e206964732e6c656e677468000081525060200191505060405180910390fd5b8391505b8282111515610d5957600582815481101515610d3657fe5b90600052602060002001549050610d4c81610a52565b8180600101925050610d1e565b50505050565b60008060008060009250600091505b600580549050821015610dee57600582815481101515610d8a57fe5b90600052602060002001549050846002811115610da357fe5b6004600083815260200190815260200160002060010160009054906101000a900460ff166002811115610dd257fe5b1415610de15782806001019350505b8180600101925050610d6e565b829350505050919050565b610e0233612535565b1515610e9c576040517f08c379a00000000000000000000000000000000000000000000000000000000081526004018080602001828103825260388152602001807f537570657241646d696e526f6c653a2063616c6c657220646f6573206e6f742081526020017f686176652074686520537570657241646d696e20726f6c65000000000000000081525060400191505060405180910390fd5b610ea581612612565b50565b610eb133612535565b1515610f4b576040517f08c379a00000000000000000000000000000000000000000000000000000000081526004018080602001828103825260388152602001807f537570657241646d696e526f6c653a2063616c6c657220646f6573206e6f742081526020017f686176652074686520537570657241646d696e20726f6c65000000000000000081525060400191505060405180910390fd5b3373ffffffffffffffffffffffffffffffffffffffff166108fc829081150290604051600060405180830381858888f19350505050158015610f91573d6000803e3d6000fd5b5050565b6000610fab82600261286590919063ffffffff16565b9050919050565b6000610fbd8261111e565b1515611031576040517f08c379a000000000000000000000000000000000000000000000000000000000815260040180806020018281038252601b8152602001807f74686520706c616365205f6964206973206e6f7420657869737473000000000081525060200191505060405180910390fd5b6004600083815260200190815260200160002060010160009054906101000a900460ff169050919050565b60038181548110151561106b57fe5b906000526020600020016000915054906101000a900473ffffffffffffffffffffffffffffffffffffffff1681565b60018054111515611113576040517f08c379a000000000000000000000000000000000000000000000000000000000815260040180806020018281038252601e8152602001807f537570657241646d696e732073686f756c64206d6f7265207468616e2030000081525060200191505060405180910390fd5b61111c33612988565b565b6000806004600084815260200190815260200160002060000154141515611148576001905061114d565b600090505b919050565b60008061115e8461111e565b15156111d2576040517f08c379a000000000000000000000000000000000000000000000000000000000815260040180806020018281038252601a8152602001807f74686520506c61636520696420646f65736e277420657869737400000000000081525060200191505060405180910390fd5b61120f610e106112018560046000898152602001908152602001600020600401546129f890919063ffffffff16565b612a9c90919063ffffffff16565b90508091505092915050565b600080600080600061122c8661111e565b15156112a0576040517f08c379a000000000000000000000000000000000000000000000000000000000815260040180806020018281038252601b8152602001807f74686520706c616365205f6964206973206e6f7420657869737473000000000081525060200191505060405180910390fd5b6004600087815260200190815260200160002060010160009054906101000a900460ff1694506004600087815260200190815260200160002060010160019054906101000a900473ffffffffffffffffffffffffffffffffffffffff16935060046000878152602001908152602001600020600201549250600460008781526020019081526020016000206003015491506004600087815260200190815260200160002060040154905091939590929450565b6000600580549050905090565b600061136b8261111e565b15156113df576040517f08c379a000000000000000000000000000000000000000000000000000000000815260040180806020018281038252601b8152602001807f74686520706c616365205f6964206973206e6f7420657869737473000000000081525060200191505060405180910390fd5b6004600083815260200190815260200160002060010160019054906101000a900473ffffffffffffffffffffffffffffffffffffffff169050919050565b60008061142933610f95565b15156114c3576040517f08c379a000000000000000000000000000000000000000000000000000000000815260040180806020018281038252603a8152602001807f57686974656c6973746564526f6c653a2063616c6c657220646f6573206e6f7481526020017f2068617665207468652057686974656c697374656420726f6c6500000000000081525060400191505060405180910390fd5b6114cc8461111e565b1515611540576040517f08c379a000000000000000000000000000000000000000000000000000000000815260040180806020018281038252601a8152602001807f74686520506c61636520696420646f65736e277420657869737400000000000081525060200191505060405180910390fd5b61154984610a52565b6001600281111561155657fe5b6004600086815260200190815260200160002060010160009054906101000a900460ff16600281111561158557fe5b1415156115fa576040517f08c379a000000000000000000000000000000000000000000000000000000000815260040180806020018281038252601e8152602001807f74686520506c616365277320737461747573206973206e6f742066726565000081525060200191505060405180910390fd5b6116048484611152565b915081341015151561167e576040517f08c379a00000000000000000000000000000000000000000000000000000000081526004018080602001828103825260158152602001807f74686520666565206973206e6f7420656e6f756768000000000000000000000081525060200191505060405180910390fd5b336004600086815260200190815260200160002060010160016101000a81548173ffffffffffffffffffffffffffffffffffffffff021916908373ffffffffffffffffffffffffffffffffffffffff1602179055504260046000868152602001908152602001600020600201819055506117018342612ab790919063ffffffff16565b600460008681526020019081526020016000206003018190555061172e8234612b3f90919063ffffffff16565b90503373ffffffffffffffffffffffffffffffffffffffff166108fc829081150290604051600060405180830381858888f19350505050158015611776573d6000803e3d6000fd5b50813373ffffffffffffffffffffffffffffffffffffffff16857f668f87382dcea2e4a74b99e8f03d2487e26ce835912268d0576dc104d7540155426117c58842612ab790919063ffffffff16565b604051808381526020018281526020019250505060405180910390a450505050565b6000600380549050905090565b6000600154905090565b61180733612535565b15156118a1576040517f08c379a00000000000000000000000000000000000000000000000000000000081526004018080602001828103825260388152602001807f537570657241646d696e526f6c653a2063616c6c657220646f6573206e6f742081526020017f686176652074686520537570657241646d696e20726f6c65000000000000000081525060400191505060405180910390fd5b6118aa8161111e565b151561191e576040517f08c379a000000000000000000000000000000000000000000000000000000000815260040180806020018281038252601a8152602001807f74686520506c61636520696420646f65736e277420657869737400000000000081525060200191505060405180910390fd5b61192781610a52565b6001600281111561193457fe5b6004600083815260200190815260200160002060010160009054906101000a900460ff16600281111561196357fe5b1415156119d8576040517f08c379a00000000000000000000000000000000000000000000000000000000081526004018080602001828103825260168152602001807f74686520506c616365206973206f6e2072656e7465640000000000000000000081525060200191505060405180910390fd5b600060028111156119e557fe5b6004600083815260200190815260200160002060010160009054906101000a900460ff166002811115611a1457fe5b5050807fbf81cc4131797e921b05092ec8438e36ab652dc65c84823cf0c37d07f2500c4460405160405180910390a250565b611a4f33612535565b1515611ae9576040517f08c379a00000000000000000000000000000000000000000000000000000000081526004018080602001828103825260388152602001807f537570657241646d696e526f6c653a2063616c6c657220646f6573206e6f742081526020017f686176652074686520537570657241646d696e20726f6c65000000000000000081525060400191505060405180910390fd5b60008214151515611b62576040517f08c379a000000000000000000000000000000000000000000000000000000000815260040180806020018281038252601b8152602001807f74686520506c6163652069642073686f756c646e27742062652030000000000081525060200191505060405180910390fd5b611b6b8261111e565b151515611be0576040517f08c379a000000000000000000000000000000000000000000000000000000000815260040180806020018281038252601a8152602001807f74686520506c61636520696420616c726561647920657869737400000000000081525060200191505060405180910390fd5b60c06040519081016040528083815260200160016002811115611bff57fe5b8152602001600073ffffffffffffffffffffffffffffffffffffffff1681526020016000815260200160008152602001611c48655af3107a4000846129f890919063ffffffff16565b815250600460008481526020019081526020016000206000820151816000015560208201518160010160006101000a81548160ff02191690836002811115611c8c57fe5b021790555060408201518160010160016101000a81548173ffffffffffffffffffffffffffffffffffffffff021916908373ffffffffffffffffffffffffffffffffffffffff160217905550606082015181600201556080820151816003015560a08201518160040155905050600582908060018154018082558091505090600182039060005260206000200160009091929091909150555080827f2331cede15ff47c5b14583bf2185d3a8e0486bf7a15a095df016a3a372d6f5a360405160405180910390a35050565b6000611d628261111e565b1515611dd6576040517f08c379a000000000000000000000000000000000000000000000000000000000815260040180806020018281038252601b8152602001807f74686520706c616365205f6964206973206e6f7420657869737473000000000081525060200191505060405180910390fd5b60046000838152602001908152602001600020600201549050919050565b600080611e0033612535565b1515611e9a576040517f08c379a00000000000000000000000000000000000000000000000000000000081526004018080602001828103825260388152602001807f537570657241646d696e526f6c653a2063616c6c657220646f6573206e6f742081526020017f686176652074686520537570657241646d696e20726f6c65000000000000000081525060400191505060405180910390fd5b611ea38361111e565b1515611f17576040517f08c379a000000000000000000000000000000000000000000000000000000000815260040180806020018281038252601a8152602001807f74686520506c61636520696420646f65736e277420657869737400000000000081525060200191505060405180910390fd5b611f2083610a52565b60016002811115611f2d57fe5b6004600085815260200190815260200160002060010160009054906101000a900460ff166002811115611f5c57fe5b141515611fd1576040517f08c379a00000000000000000000000000000000000000000000000000000000081526004018080602001828103825260168152602001807f74686520506c616365206973206f6e2072656e7465640000000000000000000081525060200191505060405180910390fd5b600460008481526020019081526020016000206000808201600090556001820160006101000a81549060ff02191690556001820160016101000a81549073ffffffffffffffffffffffffffffffffffffffff021916905560028201600090556003820160009055600482016000905550506000915060058054905090505b808210156120d2578260058381548110151561206757fe5b906000526020600020015414156120cd5760056001820381548110151561208a57fe5b90600052602060002001546005838154811015156120a457fe5b906000526020600020018190555060058054809190600190036120c79190612e13565b506120d2565b61204f565b827f6447705b245c4df883721b31769004983553b96bf2a33db55dc12320674eab5560405160405180910390a2505050565b61210d33612535565b15156121a7576040517f08c379a00000000000000000000000000000000000000000000000000000000081526004018080602001828103825260388152602001807f537570657241646d696e526f6c653a2063616c6c657220646f6573206e6f742081526020017f686176652074686520537570657241646d696e20726f6c65000000000000000081525060400191505060405180910390fd5b6121b081612bc4565b50565b60006121be8261111e565b1515612232576040517f08c379a000000000000000000000000000000000000000000000000000000000815260040180806020018281038252601b8152602001807f74686520706c616365205f6964206973206e6f7420657869737473000000000081525060200191505060405180910390fd5b60046000838152602001908152602001600020600301549050919050565b61225933612535565b15156122f3576040517f08c379a00000000000000000000000000000000000000000000000000000000081526004018080602001828103825260388152602001807f537570657241646d696e526f6c653a2063616c6c657220646f6573206e6f742081526020017f686176652074686520537570657241646d696e20726f6c65000000000000000081525060400191505060405180910390fd5b6122fc8161111e565b1515612370576040517f08c379a000000000000000000000000000000000000000000000000000000000815260040180806020018281038252601a8152602001807f74686520506c61636520696420646f65736e277420657869737400000000000081525060200191505060405180910390fd5b61237981610a52565b6000600281111561238657fe5b6004600083815260200190815260200160002060010160009054906101000a900460ff1660028111156123b557fe5b14151561242a576040517f08c379a00000000000000000000000000000000000000000000000000000000081526004018080602001828103825260178152602001807f74686520506c6163652069736e2774206f6e2053746f7000000000000000000081525060200191505060405180910390fd5b6001600281111561243757fe5b6004600083815260200190815260200160002060010160009054906101000a900460ff16600281111561246657fe5b5050807f075e1459ec242132cc26267fd4f6b211c4a843c225c32fb55dcd38b42550425b60405160405180910390a250565b60006124a38261111e565b1515612517576040517f08c379a000000000000000000000000000000000000000000000000000000000815260040180806020018281038252601b8152602001807f74686520706c616365205f6964206973206e6f7420657869737473000000000081525060200191505060405180910390fd5b60046000838152602001908152602001600020600401549050919050565b600061254b82600061286590919063ffffffff16565b9050919050565b612566816002612c3490919063ffffffff16565b60038190806001815401808255809150509060018203906000526020600020016000909192909190916101000a81548173ffffffffffffffffffffffffffffffffffffffff021916908373ffffffffffffffffffffffffffffffffffffffff160217905550508073ffffffffffffffffffffffffffffffffffffffff167fee1504a83b6d4a361f4c1dc78ab59bfa30d6a3b6612c403e86bb01ef2984295f60405160405180910390a250565b6000612628826002612d1190919063ffffffff16565b61263c82600261286590919063ffffffff16565b15156126d6576040517f08c379a00000000000000000000000000000000000000000000000000000000081526004018080602001828103825260218152602001807f526f6c65733a206163636f756e7420646f6573206e6f74206861766520726f6c81526020017f650000000000000000000000000000000000000000000000000000000000000081525060400191505060405180910390fd5b600090505b8173ffffffffffffffffffffffffffffffffffffffff1660038281548110151561270157fe5b9060005260206000200160009054906101000a900473ffffffffffffffffffffffffffffffffffffffff1673ffffffffffffffffffffffffffffffffffffffff161415156127565780806001019150506126db565b5b6001600380549050038110156128085760036001820181548110151561277957fe5b9060005260206000200160009054906101000a900473ffffffffffffffffffffffffffffffffffffffff166003828154811015156127b357fe5b9060005260206000200160006101000a81548173ffffffffffffffffffffffffffffffffffffffff021916908373ffffffffffffffffffffffffffffffffffffffff1602179055508080600101915050612757565b600380548091906001900361281d9190612e3f565b508173ffffffffffffffffffffffffffffffffffffffff167f270d9b30cf5b0793bbfd54c9d5b94aeb49462b8148399000265144a8722da6b660405160405180910390a25050565b60008073ffffffffffffffffffffffffffffffffffffffff168273ffffffffffffffffffffffffffffffffffffffff1614151515612931576040517f08c379a00000000000000000000000000000000000000000000000000000000081526004018080602001828103825260228152602001807f526f6c65733a206163636f756e7420697320746865207a65726f20616464726581526020017f737300000000000000000000000000000000000000000000000000000000000081525060400191505060405180910390fd5b8260000160008373ffffffffffffffffffffffffffffffffffffffff1673ffffffffffffffffffffffffffffffffffffffff16815260200190815260200160002060009054906101000a900460ff16905092915050565b61299c816000612d1190919063ffffffff16565b6129b160018054612b3f90919063ffffffff16565b508073ffffffffffffffffffffffffffffffffffffffff167ffb445f6ec07647d2bb7af72821e6b8b7303ec375e934d4a338d38ed5846c2d5660405160405180910390a250565b600080831415612a0b5760009050612a96565b8183029050818382811515612a1c57fe5b04141515612a92576040517f08c379a00000000000000000000000000000000000000000000000000000000081526004018080602001828103825260138152602001807f536166654d617468206d756c206661696c65640000000000000000000000000081525060200191505060405180910390fd5b8090505b92915050565b6000808284811515612aaa57fe5b0490508091505092915050565b60008183019050828110151515612b36576040517f08c379a00000000000000000000000000000000000000000000000000000000081526004018080602001828103825260138152602001807f536166654d61746820616464206661696c65640000000000000000000000000081525060200191505060405180910390fd5b80905092915050565b6000828211151515612bb9576040517f08c379a00000000000000000000000000000000000000000000000000000000081526004018080602001828103825260138152602001807f536166654d61746820737562206661696c65640000000000000000000000000081525060200191505060405180910390fd5b818303905092915050565b612bd8816000612c3490919063ffffffff16565b612bed60018054612ab790919063ffffffff16565b508073ffffffffffffffffffffffffffffffffffffffff167f286f82d2b1e37b5e9f33e455d014b4a5f6c29388e6e41e1281d4c83e04f4265560405160405180910390a250565b612c3e8282612865565b151515612cb3576040517f08c379a000000000000000000000000000000000000000000000000000000000815260040180806020018281038252601f8152602001807f526f6c65733a206163636f756e7420616c72656164792068617320726f6c650081525060200191505060405180910390fd5b60018260000160008373ffffffffffffffffffffffffffffffffffffffff1673ffffffffffffffffffffffffffffffffffffffff16815260200190815260200160002060006101000a81548160ff0219169083151502179055505050565b612d1b8282612865565b1515612db5576040517f08c379a00000000000000000000000000000000000000000000000000000000081526004018080602001828103825260218152602001807f526f6c65733a206163636f756e7420646f6573206e6f74206861766520726f6c81526020017f650000000000000000000000000000000000000000000000000000000000000081525060400191505060405180910390fd5b60008260000160008373ffffffffffffffffffffffffffffffffffffffff1673ffffffffffffffffffffffffffffffffffffffff16815260200190815260200160002060006101000a81548160ff0219169083151502179055505050565b815481835581811115612e3a57818360005260206000209182019101612e399190612e6b565b5b505050565b815481835581811115612e6657818360005260206000209182019101612e659190612e6b565b5b505050565b612e8d91905b80821115612e89576000816000905550600101612e71565b5090565b905600a165627a7a723058203346ef4534d815246b0e6be876a5ccf563b2415248e32a4fa1ce9db68e4567e40029",
  "source": "pragma solidity 0.4.24;\n\nimport \"./Roles.sol\";\n\n/**\n * @title The rent main contract\n * @dev Defines a contract able to rent and return\n * @dev  now \n */\ncontract Renting is WhitelistedRole {\n    using SafeMath for uint256;\n\n    // created after the rent-function was executed\n    event LogRented(\n        uint256 indexed id,\n        address indexed user,\n        uint256 rentedFrom,         // \n        uint256 rentedUntil,        // \n        uint256 indexed totalPrice  // \n    );\n\n    event LogNewPlace(uint256 indexed id, uint256 indexed perPrice);\n\n    event LogRmPlace(uint256 indexed id);\n\n    event LogFreeToStop(uint256 indexed id);\n\n    event LogStopToFree(uint256 indexed id);\n\n    event LogWorkToFree(uint256 indexed id, uint256 beforeBegin, uint256 beforeEnd);\n\n    event LogFreeToWork(\n        uint256 indexed id,\n        uint256 begin,\n        uint256 end,\n        address  indexed user,\n        uint256 indexed totalPrice\n    );\n\n    /**\n     * @dev \n     */\n    struct Place {\n        uint256 id;         // id\n        Status status;      // \n        address user;       // UnInitFree0x0\n        uint256 begin;      // UnixUnInitFree0\n        uint256 end;        // UnixUnInitFree0\n        uint256 perPrice;   // perPrice Wei/h Id\n    }\n\n    mapping (uint256=>Place) places;\n    uint256[] ids;\n\n    /**\n     * @dev \n     * @dev FreestatusOnWork\n     * @dev \n     */\n    enum Status {\n        Stop,\n        Free,\n        OnWork\n    }\n\n    // admin\n\n    /**\n     * @dev \n     * @param _perPrice 0.0001 ETH1ETH10000\n     * @dev  Wei 18\n     */\n    function addPlace(uint256 _id, uint256 _perPrice) public onlySuperAdmin {\n        require(_id != 0, \"the Place id shouldn't be 0\"); // isPlaceExist 0 \n        require(!isPlaceExist(_id), \"the Place id already exist\");\n        places[_id] = Place({\n            id: _id,\n            status: Status.Free,\n            user: address(0),\n            begin: 0,\n            end: 0,\n            perPrice: _perPrice.mul(10**14)\n        });\n        ids.push(_id);\n\n        emit LogNewPlace(_id, _perPrice);\n    }\n\n    /**\n     * @dev \n     */\n    function rmPlace(uint256 _id) public onlySuperAdmin {\n        require(isPlaceExist(_id), \"the Place id doesn't exist\");\n        upgradePlaceStatus(_id);\n\n        require(places[_id].status == Status.Free, \"the Place is on rented\");\n\n        delete places[_id];\n\n        uint256 i = 0;\n        uint256 length = ids.length;\n        while (i < length) {\n            if (ids[i] == _id) {\n                ids[i] = ids[length-1];\n                ids.length--;\n                break;\n            }\n        }\n\n        emit LogRmPlace(_id);\n    }\n\n    /**\n     * @dev \n     */\n    function stopPlace(uint256 _id) public onlySuperAdmin {\n        require(isPlaceExist(_id), \"the Place id doesn't exist\");\n        upgradePlaceStatus(_id);\n\n        require(places[_id].status == Status.Free, \"the Place is on rented\");\n        places[_id].status == Status.Stop;\n\n        emit LogFreeToStop(_id);\n    }\n\n    /**\n     * @dev \n     */\n    function unStopPlace(uint256 _id) public onlySuperAdmin {\n        require(isPlaceExist(_id), \"the Place id doesn't exist\");\n        upgradePlaceStatus(_id);\n\n        require(places[_id].status == Status.Stop, \"the Place isn't on Stop\");\n        places[_id].status == Status.Free;\n\n        emit LogStopToFree(_id);\n    }\n\n    /**\n     * @dev \n     */\n    function withdraw(uint256 amount) public onlySuperAdmin {\n        msg.sender.transfer(amount);\n    }\n\n    // normal\n    /**\n     * @param _id the Place id\n     * @param _secondsToRent the time of rental in seconds\n     */\n    function rent(uint256 _id, uint256 _secondsToRent) external payable onlyWhitelisted {\n        require(isPlaceExist(_id), \"the Place id doesn't exist\");\n        upgradePlaceStatus(_id);\n        require(places[_id].status == Status.Free, \"the Place's status is not free\");\n\n        uint256 _price = getPrice(_id, _secondsToRent);\n        require(msg.value >= _price, \"the fee is not enough\");\n\n        places[_id].user = msg.sender;\n        places[_id].begin = now;\n        places[_id].end = now.add(_secondsToRent);\n\n\n        uint256 _overfee = msg.value.sub(_price);\n        msg.sender.transfer(_overfee);\n\n        emit LogFreeToWork(_id, now, now.add(_secondsToRent), msg.sender, _price);\n    }\n\n    /**\n     * @dev \n     * @dev  now \n     * @dev  start\n     */\n    function upgradePlaceStatus(uint256 _id) public {\n        require(isPlaceExist(_id), \"the Place id doesn't exist\");\n        if (places[_id].status != Status.OnWork) {\n            return;\n        } else if (places[_id].end > now) {\n            return;\n        } else {\n            places[_id].status = Status.Free;\n            uint256 _begin = places[_id].begin;\n            uint256 _end = places[_id].end;\n            places[_id].begin = 0;\n            places[_id].end = 0;\n\n            emit LogWorkToFree(_id, _begin, _end);\n        }\n    }\n\n    function upgradeAllPlaceStatus() public {\n        for(uint256 i = 0; i < ids.length; i++) {\n            uint256 _id = ids[i];\n            upgradePlaceStatus(_id);\n        }\n    }\n\n    /**\n     * @dev upgrade [_a, _b] status\n     */\n    function upgradeAllPlaceStatus2(uint256 _a, uint256 _b) public {\n        require(_a < _b, \"error order\");\n        require(_b < ids.length, \"should smaller than ids.length\");\n        for(uint256 i = _a; i <= _b; i++) {\n            uint256 _id = ids[i];\n            upgradePlaceStatus(_id);\n        }\n    }\n\n    // view\n\n    /**\n     * @param _id the Place id\n     * @return price to be payed for renting the device\n     * @dev the total price for rentinng the Place\n     */\n    function getPrice(uint256 _id, uint256 _secondsToRent) public view returns (uint256) {\n        require(isPlaceExist(_id), \"the Place id doesn't exist\");\n        uint256 _price = places[_id].perPrice.mul(_secondsToRent).div(3600);\n        return _price;\n    }\n\n    /**\n     * @param _status deviceid\n     * @return amount of states of a device\n     * @dev returns the current amount of states\n     * @dev call upgradeAllPlaceStatus() before call this function, or the amount is not accurate;\n     */\n    function getStateCount(Status _status) external view returns (uint256) {\n        uint256 _amount = 0;\n        for(uint256 i = 0; i < ids.length; i++) {\n            uint256 _id = ids[i];\n            if (places[_id].status == _status) {\n                _amount++;\n            }\n        }\n        return _amount;\n    }\n\n    /**\n     * @dev get the total amount of Places\n     */\n    function getTotalAmount() external view returns (uint256) {\n        return ids.length;\n    }\n\n    /**\n     * @return element of ids;\n     */\n    function getIdFromIndex(uint256 _index) external view returns (uint256) {\n        require(_index < ids.length, \"error _index\");\n        return ids[_index];\n    }\n\n    /**\n     * @param _id Place id\n     * @return controller, rentedFrom, rentedUntil and properties of the given index beloning to the state\n     * @dev returns the important informations of a state\n     */\n    function getPlaceInfo(uint256 _id) external view returns (Status _status, address _user, uint256 _begin, uint256 _end, uint256 _perPrice) {\n        require(isPlaceExist(_id), \"the place _id is not exists\");\n\n        _status = places[_id].status;\n        _user = places[_id].user;\n        _begin = places[_id].begin;\n        _end = places[_id].end;\n        _perPrice = places[_id].perPrice;\n    }\n\n    function getPlaceState(uint256 _id) public view returns(Status) {\n        require(isPlaceExist(_id), \"the place _id is not exists\");\n\n        return places[_id].status;\n    }\n\n    function getPlaceUser(uint256 _id) public view returns(address) {\n        require(isPlaceExist(_id), \"the place _id is not exists\");\n\n        return places[_id].user;\n    }\n\n    function getPlaceBegin(uint256 _id) public view returns(uint256) {\n        require(isPlaceExist(_id), \"the place _id is not exists\");\n\n        return places[_id].begin;\n    }\n\n    function getPlaceEnd(uint256 _id) public view returns(uint256) {\n        require(isPlaceExist(_id), \"the place _id is not exists\");\n\n        return places[_id].end;\n    }\n\n    function getPlacePerPrice(uint256 _id) public view returns(uint256) {\n        require(isPlaceExist(_id), \"the place _id is not exists\");\n\n        return places[_id].perPrice;\n    }\n\n    function isPlaceExist(uint256 _id) public view returns (bool) {\n        if(places[_id].id != 0) {\n            return true;\n        } else {\n            return false;\n        }\n    }\n}",
  "sourcePath": "/home/flyq/workspaces/flyq/lock_contract/contracts/Renting.sol",
  "compiler": {
    "name": "solc",
    "version": "0.4.24+commit.e67f0147.Emscripten.clang"
  },
  "schemaVersion": "3.0.16",
  "updatedAt": "2020-02-21T02:43:06.614Z",
  "devdoc": {
    "methods": {
      "addPlace(uint256,uint256)": {
        "details": " Wei 18",
        "params": {
          "_perPrice": "0.0001 ETH1ETH10000"
        }
      },
      "getIdFromIndex(uint256)": {
        "return": "element of ids;"
      },
      "getPlaceInfo(uint256)": {
        "details": "returns the important informations of a state",
        "params": {
          "_id": "Place id"
        },
        "return": "controller, rentedFrom, rentedUntil and properties of the given index beloning to the state"
      },
      "getPrice(uint256,uint256)": {
        "details": "the total price for rentinng the Place",
        "params": {
          "_id": "the Place id"
        },
        "return": "price to be payed for renting the device"
      },
      "getStateCount(uint8)": {
        "details": "returns the current amount of statescall upgradeAllPlaceStatus() before call this function, or the amount is not accurate;",
        "params": {
          "_status": "deviceid"
        },
        "return": "amount of states of a device"
      },
      "getTotalAmount()": {
        "details": "get the total amount of Places"
      },
      "rent(uint256,uint256)": {
        "params": {
          "_id": "the Place id",
          "_secondsToRent": "the time of rental in seconds"
        }
      },
      "rmPlace(uint256)": {
        "details": ""
      },
      "stopPlace(uint256)": {
        "details": ""
      },
      "unStopPlace(uint256)": {
        "details": ""
      },
      "upgradeAllPlaceStatus2(uint256,uint256)": {
        "details": "upgrade [_a, _b] status"
      },
      "upgradePlaceStatus(uint256)": {
        "details": " now  start"
      },
      "withdraw(uint256)": {
        "details": ""
      }
    },
    "title": "The rent main contract"
  },
  "userdoc": {
    "methods": {}
  }
}