{
  "contractName": "Renting",
  "abi": [
    {
      "constant": false,
      "inputs": [
        {
          "name": "account",
          "type": "address"
        }
      ],
      "name": "addWhitelisted",
      "outputs": [],
      "payable": false,
      "stateMutability": "nonpayable",
      "type": "function"
    },
    {
      "constant": false,
      "inputs": [
        {
          "name": "account",
          "type": "address"
        }
      ],
      "name": "removeWhitelisted",
      "outputs": [],
      "payable": false,
      "stateMutability": "nonpayable",
      "type": "function"
    },
    {
      "constant": true,
      "inputs": [
        {
          "name": "",
          "type": "uint256"
        }
      ],
      "name": "superAdminAddress",
      "outputs": [
        {
          "name": "",
          "type": "address"
        }
      ],
      "payable": false,
      "stateMutability": "view",
      "type": "function"
    },
    {
      "constant": true,
      "inputs": [
        {
          "name": "account",
          "type": "address"
        }
      ],
      "name": "isWhitelisted",
      "outputs": [
        {
          "name": "",
          "type": "bool"
        }
      ],
      "payable": false,
      "stateMutability": "view",
      "type": "function"
    },
    {
      "constant": true,
      "inputs": [
        {
          "name": "",
          "type": "uint256"
        }
      ],
      "name": "whitelistedAddress",
      "outputs": [
        {
          "name": "",
          "type": "address"
        }
      ],
      "payable": false,
      "stateMutability": "view",
      "type": "function"
    },
    {
      "constant": false,
      "inputs": [],
      "name": "renounceWhitelistAdmin",
      "outputs": [],
      "payable": false,
      "stateMutability": "nonpayable",
      "type": "function"
    },
    {
      "constant": true,
      "inputs": [],
      "name": "whitelistedAmount",
      "outputs": [
        {
          "name": "",
          "type": "uint256"
        }
      ],
      "payable": false,
      "stateMutability": "view",
      "type": "function"
    },
    {
      "constant": true,
      "inputs": [],
      "name": "superAdminAmount",
      "outputs": [
        {
          "name": "",
          "type": "uint256"
        }
      ],
      "payable": false,
      "stateMutability": "view",
      "type": "function"
    },
    {
      "constant": false,
      "inputs": [
        {
          "name": "account",
          "type": "address"
        }
      ],
      "name": "addSuperAdmin",
      "outputs": [],
      "payable": false,
      "stateMutability": "nonpayable",
      "type": "function"
    },
    {
      "constant": true,
      "inputs": [
        {
          "name": "account",
          "type": "address"
        }
      ],
      "name": "isSuperAdmin",
      "outputs": [
        {
          "name": "",
          "type": "bool"
        }
      ],
      "payable": false,
      "stateMutability": "view",
      "type": "function"
    },
    {
      "anonymous": false,
      "inputs": [
        {
          "indexed": true,
          "name": "id",
          "type": "uint256"
        },
        {
          "indexed": true,
          "name": "user",
          "type": "address"
        },
        {
          "indexed": false,
          "name": "rentedFrom",
          "type": "uint256"
        },
        {
          "indexed": false,
          "name": "rentedUntil",
          "type": "uint256"
        },
        {
          "indexed": true,
          "name": "totalPrice",
          "type": "uint256"
        }
      ],
      "name": "LogRented",
      "type": "event"
    },
    {
      "anonymous": false,
      "inputs": [
        {
          "indexed": true,
          "name": "id",
          "type": "uint256"
        },
        {
          "indexed": true,
          "name": "perPrice",
          "type": "uint256"
        }
      ],
      "name": "LogNewPlace",
      "type": "event"
    },
    {
      "anonymous": false,
      "inputs": [
        {
          "indexed": true,
          "name": "id",
          "type": "uint256"
        }
      ],
      "name": "LogRmPlace",
      "type": "event"
    },
    {
      "anonymous": false,
      "inputs": [
        {
          "indexed": true,
          "name": "id",
          "type": "uint256"
        }
      ],
      "name": "LogFreeToStop",
      "type": "event"
    },
    {
      "anonymous": false,
      "inputs": [
        {
          "indexed": true,
          "name": "id",
          "type": "uint256"
        }
      ],
      "name": "LogStopToFree",
      "type": "event"
    },
    {
      "anonymous": false,
      "inputs": [
        {
          "indexed": true,
          "name": "id",
          "type": "uint256"
        },
        {
          "indexed": false,
          "name": "beforeBegin",
          "type": "uint256"
        },
        {
          "indexed": false,
          "name": "beforeEnd",
          "type": "uint256"
        }
      ],
      "name": "LogWorkToFree",
      "type": "event"
    },
    {
      "anonymous": false,
      "inputs": [
        {
          "indexed": true,
          "name": "id",
          "type": "uint256"
        },
        {
          "indexed": false,
          "name": "begin",
          "type": "uint256"
        },
        {
          "indexed": false,
          "name": "end",
          "type": "uint256"
        },
        {
          "indexed": true,
          "name": "user",
          "type": "address"
        },
        {
          "indexed": true,
          "name": "totalPrice",
          "type": "uint256"
        }
      ],
      "name": "LogFreeToWork",
      "type": "event"
    },
    {
      "anonymous": false,
      "inputs": [
        {
          "indexed": true,
          "name": "account",
          "type": "address"
        }
      ],
      "name": "WhitelistedAdded",
      "type": "event"
    },
    {
      "anonymous": false,
      "inputs": [
        {
          "indexed": true,
          "name": "account",
          "type": "address"
        }
      ],
      "name": "WhitelistedRemoved",
      "type": "event"
    },
    {
      "anonymous": false,
      "inputs": [
        {
          "indexed": true,
          "name": "account",
          "type": "address"
        }
      ],
      "name": "SuperAdminAdded",
      "type": "event"
    },
    {
      "anonymous": false,
      "inputs": [
        {
          "indexed": true,
          "name": "account",
          "type": "address"
        }
      ],
      "name": "SuperAdminRemoved",
      "type": "event"
    },
    {
      "constant": false,
      "inputs": [
        {
          "name": "_id",
          "type": "uint256"
        },
        {
          "name": "_perPrice",
          "type": "uint256"
        }
      ],
      "name": "addPlace",
      "outputs": [],
      "payable": false,
      "stateMutability": "nonpayable",
      "type": "function"
    },
    {
      "constant": false,
      "inputs": [
        {
          "name": "_id",
          "type": "uint256"
        }
      ],
      "name": "rmPlace",
      "outputs": [],
      "payable": false,
      "stateMutability": "nonpayable",
      "type": "function"
    },
    {
      "constant": false,
      "inputs": [
        {
          "name": "_id",
          "type": "uint256"
        }
      ],
      "name": "stopPlace",
      "outputs": [],
      "payable": false,
      "stateMutability": "nonpayable",
      "type": "function"
    },
    {
      "constant": false,
      "inputs": [
        {
          "name": "_id",
          "type": "uint256"
        }
      ],
      "name": "unStopPlace",
      "outputs": [],
      "payable": false,
      "stateMutability": "nonpayable",
      "type": "function"
    },
    {
      "constant": false,
      "inputs": [
        {
          "name": "_amount",
          "type": "uint256"
        }
      ],
      "name": "withdraw",
      "outputs": [],
      "payable": false,
      "stateMutability": "nonpayable",
      "type": "function"
    },
    {
      "constant": false,
      "inputs": [
        {
          "name": "_id",
          "type": "uint256"
        },
        {
          "name": "_secondsToRent",
          "type": "uint256"
        }
      ],
      "name": "rent",
      "outputs": [],
      "payable": true,
      "stateMutability": "payable",
      "type": "function"
    },
    {
      "constant": false,
      "inputs": [
        {
          "name": "_id",
          "type": "uint256"
        }
      ],
      "name": "upgradePlaceStatus",
      "outputs": [],
      "payable": false,
      "stateMutability": "nonpayable",
      "type": "function"
    },
    {
      "constant": false,
      "inputs": [],
      "name": "upgradeAllPlaceStatus",
      "outputs": [],
      "payable": false,
      "stateMutability": "nonpayable",
      "type": "function"
    },
    {
      "constant": false,
      "inputs": [
        {
          "name": "_a",
          "type": "uint256"
        },
        {
          "name": "_b",
          "type": "uint256"
        }
      ],
      "name": "upgradeAllPlaceStatus2",
      "outputs": [],
      "payable": false,
      "stateMutability": "nonpayable",
      "type": "function"
    },
    {
      "constant": true,
      "inputs": [
        {
          "name": "_id",
          "type": "uint256"
        },
        {
          "name": "_secondsToRent",
          "type": "uint256"
        }
      ],
      "name": "getPrice",
      "outputs": [
        {
          "name": "",
          "type": "uint256"
        }
      ],
      "payable": false,
      "stateMutability": "view",
      "type": "function"
    },
    {
      "constant": true,
      "inputs": [
        {
          "name": "_status",
          "type": "uint8"
        }
      ],
      "name": "getStateCount",
      "outputs": [
        {
          "name": "",
          "type": "uint256"
        }
      ],
      "payable": false,
      "stateMutability": "view",
      "type": "function"
    },
    {
      "constant": true,
      "inputs": [],
      "name": "getTotalAmount",
      "outputs": [
        {
          "name": "",
          "type": "uint256"
        }
      ],
      "payable": false,
      "stateMutability": "view",
      "type": "function"
    },
    {
      "constant": true,
      "inputs": [
        {
          "name": "_index",
          "type": "uint256"
        }
      ],
      "name": "getIdFromIndex",
      "outputs": [
        {
          "name": "",
          "type": "uint256"
        }
      ],
      "payable": false,
      "stateMutability": "view",
      "type": "function"
    },
    {
      "constant": true,
      "inputs": [
        {
          "name": "_id",
          "type": "uint256"
        }
      ],
      "name": "getPlaceInfo",
      "outputs": [
        {
          "name": "_status",
          "type": "uint8"
        },
        {
          "name": "_user",
          "type": "address"
        },
        {
          "name": "_begin",
          "type": "uint256"
        },
        {
          "name": "_end",
          "type": "uint256"
        },
        {
          "name": "_perPrice",
          "type": "uint256"
        }
      ],
      "payable": false,
      "stateMutability": "view",
      "type": "function"
    },
    {
      "constant": true,
      "inputs": [
        {
          "name": "_id",
          "type": "uint256"
        }
      ],
      "name": "getPlaceState",
      "outputs": [
        {
          "name": "",
          "type": "uint8"
        }
      ],
      "payable": false,
      "stateMutability": "view",
      "type": "function"
    },
    {
      "constant": true,
      "inputs": [
        {
          "name": "_id",
          "type": "uint256"
        }
      ],
      "name": "getPlaceUser",
      "outputs": [
        {
          "name": "",
          "type": "address"
        }
      ],
      "payable": false,
      "stateMutability": "view",
      "type": "function"
    },
    {
      "constant": true,
      "inputs": [
        {
          "name": "_id",
          "type": "uint256"
        }
      ],
      "name": "getPlaceBegin",
      "outputs": [
        {
          "name": "",
          "type": "uint256"
        }
      ],
      "payable": false,
      "stateMutability": "view",
      "type": "function"
    },
    {
      "constant": true,
      "inputs": [
        {
          "name": "_id",
          "type": "uint256"
        }
      ],
      "name": "getPlaceEnd",
      "outputs": [
        {
          "name": "",
          "type": "uint256"
        }
      ],
      "payable": false,
      "stateMutability": "view",
      "type": "function"
    },
    {
      "constant": true,
      "inputs": [
        {
          "name": "_id",
          "type": "uint256"
        }
      ],
      "name": "getPlacePerPrice",
      "outputs": [
        {
          "name": "",
          "type": "uint256"
        }
      ],
      "payable": false,
      "stateMutability": "view",
      "type": "function"
    },
    {
      "constant": true,
      "inputs": [
        {
          "name": "_id",
          "type": "uint256"
        }
      ],
      "name": "isPlaceExist",
      "outputs": [
        {
          "name": "",
          "type": "bool"
        }
      ],
      "payable": false,
      "stateMutability": "view",
      "type": "function"
    }
  ],
  "bytecode": "0x60806040526200001e3362000024640100000000026401000000009004565b62000307565b62000048816000620000f46401000000000262002f56179091906401000000009004565b60018190806001815401808255809150509060018203906000526020600020016000909192909190916101000a81548173ffffffffffffffffffffffffffffffffffffffff021916908373ffffffffffffffffffffffffffffffffffffffff160217905550508073ffffffffffffffffffffffffffffffffffffffff167f286f82d2b1e37b5e9f33e455d014b4a5f6c29388e6e41e1281d4c83e04f4265560405160405180910390a250565b6200010f8282620001e3640100000000026401000000009004565b15151562000185576040517f08c379a000000000000000000000000000000000000000000000000000000000815260040180806020018281038252601f8152602001807f526f6c65733a206163636f756e7420616c72656164792068617320726f6c650081525060200191505060405180910390fd5b60018260000160008373ffffffffffffffffffffffffffffffffffffffff1673ffffffffffffffffffffffffffffffffffffffff16815260200190815260200160002060006101000a81548160ff0219169083151502179055505050565b60008073ffffffffffffffffffffffffffffffffffffffff168273ffffffffffffffffffffffffffffffffffffffff1614151515620002b0576040517f08c379a00000000000000000000000000000000000000000000000000000000081526004018080602001828103825260228152602001807f526f6c65733a206163636f756e7420697320746865207a65726f20616464726581526020017f737300000000000000000000000000000000000000000000000000000000000081525060400191505060405180910390fd5b8260000160008373ffffffffffffffffffffffffffffffffffffffff1673ffffffffffffffffffffffffffffffffffffffff16815260200190815260200160002060009054906101000a900460ff16905092915050565b6131de80620003176000396000f300608060405260043610610180576000357c0100000000000000000000000000000000000000000000000000000000900463ffffffff168063046f354e1461018557806310154bad1461019c57806311fea91c146101df578063120a4c1714610220578063180856211461024d5780631b1a478b14610284578063291d9549146102c85780632e1a7d4d1461030b57806334b485ea146103385780633af32abf146103a55780633f62414b146104005780634a0283d61461044f5780634c5a628c146104bc5780635a76bb5b146104d35780635cf4ee91146105185780635d287bfa1461056357806365ac4341146105fa57806367c67e4814610625578063783a112b146106925780639f49003c146106bc578063a0d622b2146106e7578063a61d5f2c14610712578063aacaf7661461073f578063af99097614610776578063b2b4139e146107b7578063b3292ff0146107e4578063b43d510714610827578063b95493fd14610868578063d214fb5514610895578063df7f453b146108d6575b600080fd5b34801561019157600080fd5b5061019a610931565b005b3480156101a857600080fd5b506101dd600480360381019080803573ffffffffffffffffffffffffffffffffffffffff16906020019092919050505061097c565b005b3480156101eb57600080fd5b5061020a60048036038101908080359060200190929190505050610a2b565b6040518082815260200191505060405180910390f35b34801561022c57600080fd5b5061024b60048036038101908080359060200190929190505050610aca565b005b34801561025957600080fd5b506102826004803603810190808035906020019092919080359060200190929190505050610c9c565b005b34801561029057600080fd5b506102b2600480360381019080803560ff169060200190929190505050610dd7565b6040518082815260200191505060405180910390f35b3480156102d457600080fd5b50610309600480360381019080803573ffffffffffffffffffffffffffffffffffffffff169060200190929190505050610e71565b005b34801561031757600080fd5b5061033660048036038101908080359060200190929190505050610f20565b005b34801561034457600080fd5b506103636004803603810190808035906020019092919050505061100d565b604051808273ffffffffffffffffffffffffffffffffffffffff1673ffffffffffffffffffffffffffffffffffffffff16815260200191505060405180910390f35b3480156103b157600080fd5b506103e6600480360381019080803573ffffffffffffffffffffffffffffffffffffffff16906020019092919050505061104b565b604051808215151515815260200191505060405180910390f35b34801561040c57600080fd5b5061042b60048036038101908080359060200190929190505050611068565b6040518082600281111561043b57fe5b60ff16815260200191505060405180910390f35b34801561045b57600080fd5b5061047a60048036038101908080359060200190929190505050611112565b604051808273ffffffffffffffffffffffffffffffffffffffff1673ffffffffffffffffffffffffffffffffffffffff16815260200191505060405180910390f35b3480156104c857600080fd5b506104d1611150565b005b3480156104df57600080fd5b506104fe600480360381019080803590602001909291905050506111da565b604051808215151515815260200191505060405180910390f35b34801561052457600080fd5b5061054d600480360381019080803590602001909291908035906020019092919050505061120e565b6040518082815260200191505060405180910390f35b34801561056f57600080fd5b5061058e600480360381019080803590602001909291905050506112d7565b6040518086600281111561059e57fe5b60ff1681526020018573ffffffffffffffffffffffffffffffffffffffff1673ffffffffffffffffffffffffffffffffffffffff1681526020018481526020018381526020018281526020019550505050505060405180910390f35b34801561060657600080fd5b5061060f61140f565b6040518082815260200191505060405180910390f35b34801561063157600080fd5b506106506004803603810190808035906020019092919050505061141c565b604051808273ffffffffffffffffffffffffffffffffffffffff1673ffffffffffffffffffffffffffffffffffffffff16815260200191505060405180910390f35b6106ba60048036038101908080359060200190929190803590602001909291905050506114d9565b005b3480156106c857600080fd5b506106d16118db565b6040518082815260200191505060405180910390f35b3480156106f357600080fd5b506106fc6118e8565b6040518082815260200191505060405180910390f35b34801561071e57600080fd5b5061073d600480360381019080803590602001909291905050506118f5565b005b34801561074b57600080fd5b506107746004803603810190808035906020019092919080359060200190929190505050611b3d565b005b34801561078257600080fd5b506107a160048036038101908080359060200190929190505050611e4e565b6040518082815260200191505060405180910390f35b3480156107c357600080fd5b506107e260048036038101908080359060200190929190505050611eeb565b005b3480156107f057600080fd5b50610825600480360381019080803573ffffffffffffffffffffffffffffffffffffffff1690602001909291905050506121fb565b005b34801561083357600080fd5b50610852600480360381019080803590602001909291905050506122aa565b6040518082815260200191505060405180910390f35b34801561087457600080fd5b5061089360048036038101908080359060200190929190505050612347565b005b3480156108a157600080fd5b506108c06004803603810190808035906020019092919050505061258f565b6040518082815260200191505060405180910390f35b3480156108e257600080fd5b50610917600480360381019080803573ffffffffffffffffffffffffffffffffffffffff16906020019092919050505061262c565b604051808215151515815260200191505060405180910390f35b600080600091505b6005805490508210156109785760058281548110151561095557fe5b9060005260206000200154905061096b81610aca565b8180600101925050610939565b5050565b6109853361262c565b1515610a1f576040517f08c379a00000000000000000000000000000000000000000000000000000000081526004018080602001828103825260388152602001807f537570657241646d696e526f6c653a2063616c6c657220646f6573206e6f742081526020017f686176652074686520537570657241646d696e20726f6c65000000000000000081525060400191505060405180910390fd5b610a2881612649565b50565b600060058054905082101515610aa9576040517f08c379a000000000000000000000000000000000000000000000000000000000815260040180806020018281038252600c8152602001807f6572726f72205f696e646578000000000000000000000000000000000000000081525060200191505060405180910390fd5b600582815481101515610ab857fe5b90600052602060002001549050919050565b600080610ad6836111da565b1515610b4a576040517f08c379a000000000000000000000000000000000000000000000000000000000815260040180806020018281038252601a8152602001807f74686520506c61636520696420646f65736e277420657869737400000000000081525060200191505060405180910390fd5b600280811115610b5657fe5b6004600085815260200190815260200160002060010160009054906101000a900460ff166002811115610b8557fe5b141515610b9157610c97565b4260046000858152602001908152602001600020600301541115610bb457610c97565b60016004600085815260200190815260200160002060010160006101000a81548160ff02191690836002811115610be757fe5b021790555060046000848152602001908152602001600020600201549150600460008481526020019081526020016000206003015490506000600460008581526020019081526020016000206002018190555060006004600085815260200190815260200160002060030181905550827f25480c4d2c567fed8a09796de977d044e3740261be580198edb7149a72b7a43c8383604051808381526020018281526020019250505060405180910390a25b505050565b6000808284101515610d16576040517f08c379a000000000000000000000000000000000000000000000000000000000815260040180806020018281038252600b8152602001807f6572726f72206f7264657200000000000000000000000000000000000000000081525060200191505060405180910390fd5b60058054905083101515610d92576040517f08c379a000000000000000000000000000000000000000000000000000000000815260040180806020018281038252601e8152602001807f73686f756c6420736d616c6c6572207468616e206964732e6c656e677468000081525060200191505060405180910390fd5b8391505b8282111515610dd157600582815481101515610dae57fe5b90600052602060002001549050610dc481610aca565b8180600101925050610d96565b50505050565b60008060008060009250600091505b600580549050821015610e6657600582815481101515610e0257fe5b90600052602060002001549050846002811115610e1b57fe5b6004600083815260200190815260200160002060010160009054906101000a900460ff166002811115610e4a57fe5b1415610e595782806001019350505b8180600101925050610de6565b829350505050919050565b610e7a3361262c565b1515610f14576040517f08c379a00000000000000000000000000000000000000000000000000000000081526004018080602001828103825260388152602001807f537570657241646d696e526f6c653a2063616c6c657220646f6573206e6f742081526020017f686176652074686520537570657241646d696e20726f6c65000000000000000081525060400191505060405180910390fd5b610f1d81612709565b50565b610f293361262c565b1515610fc3576040517f08c379a00000000000000000000000000000000000000000000000000000000081526004018080602001828103825260388152602001807f537570657241646d696e526f6c653a2063616c6c657220646f6573206e6f742081526020017f686176652074686520537570657241646d696e20726f6c65000000000000000081525060400191505060405180910390fd5b3373ffffffffffffffffffffffffffffffffffffffff166108fc829081150290604051600060405180830381858888f19350505050158015611009573d6000803e3d6000fd5b5050565b60018181548110151561101c57fe5b906000526020600020016000915054906101000a900473ffffffffffffffffffffffffffffffffffffffff1681565b600061106182600261295990919063ffffffff16565b9050919050565b6000611073826111da565b15156110e7576040517f08c379a000000000000000000000000000000000000000000000000000000000815260040180806020018281038252601b8152602001807f74686520706c616365205f6964206973206e6f7420657869737473000000000081525060200191505060405180910390fd5b6004600083815260200190815260200160002060010160009054906101000a900460ff169050919050565b60038181548110151561112157fe5b906000526020600020016000915054906101000a900473ffffffffffffffffffffffffffffffffffffffff1681565b600161115a6118e8565b1115156111cf576040517f08c379a000000000000000000000000000000000000000000000000000000000815260040180806020018281038252601e8152602001807f537570657241646d696e732073686f756c64206d6f7265207468616e2030000081525060200191505060405180910390fd5b6111d833612a7c565b565b60008060046000848152602001908152602001600020600001541415156112045760019050611209565b600090505b919050565b60008061121a846111da565b151561128e576040517f08c379a000000000000000000000000000000000000000000000000000000000815260040180806020018281038252601a8152602001807f74686520506c61636520696420646f65736e277420657869737400000000000081525060200191505060405180910390fd5b6112cb610e106112bd856004600089815260200190815260200160002060040154612cca90919063ffffffff16565b612d6e90919063ffffffff16565b90508091505092915050565b60008060008060006112e8866111da565b151561135c576040517f08c379a000000000000000000000000000000000000000000000000000000000815260040180806020018281038252601b8152602001807f74686520706c616365205f6964206973206e6f7420657869737473000000000081525060200191505060405180910390fd5b6004600087815260200190815260200160002060010160009054906101000a900460ff1694506004600087815260200190815260200160002060010160019054906101000a900473ffffffffffffffffffffffffffffffffffffffff16935060046000878152602001908152602001600020600201549250600460008781526020019081526020016000206003015491506004600087815260200190815260200160002060040154905091939590929450565b6000600580549050905090565b6000611427826111da565b151561149b576040517f08c379a000000000000000000000000000000000000000000000000000000000815260040180806020018281038252601b8152602001807f74686520706c616365205f6964206973206e6f7420657869737473000000000081525060200191505060405180910390fd5b6004600083815260200190815260200160002060010160019054906101000a900473ffffffffffffffffffffffffffffffffffffffff169050919050565b6000806114e53361104b565b151561157f576040517f08c379a000000000000000000000000000000000000000000000000000000000815260040180806020018281038252603a8152602001807f57686974656c6973746564526f6c653a2063616c6c657220646f6573206e6f7481526020017f2068617665207468652057686974656c697374656420726f6c6500000000000081525060400191505060405180910390fd5b611588846111da565b15156115fc576040517f08c379a000000000000000000000000000000000000000000000000000000000815260040180806020018281038252601a8152602001807f74686520506c61636520696420646f65736e277420657869737400000000000081525060200191505060405180910390fd5b61160584610aca565b6001600281111561161257fe5b6004600086815260200190815260200160002060010160009054906101000a900460ff16600281111561164157fe5b1415156116b6576040517f08c379a000000000000000000000000000000000000000000000000000000000815260040180806020018281038252601e8152602001807f74686520506c616365277320737461747573206973206e6f742066726565000081525060200191505060405180910390fd5b6116c0848461120e565b915081341015151561173a576040517f08c379a00000000000000000000000000000000000000000000000000000000081526004018080602001828103825260158152602001807f74686520666565206973206e6f7420656e6f756768000000000000000000000081525060200191505060405180910390fd5b60026004600086815260200190815260200160002060010160006101000a81548160ff0219169083600281111561176d57fe5b0217905550336004600086815260200190815260200160002060010160016101000a81548173ffffffffffffffffffffffffffffffffffffffff021916908373ffffffffffffffffffffffffffffffffffffffff1602179055504260046000868152602001908152602001600020600201819055506117f58342612d8990919063ffffffff16565b60046000868152602001908152602001600020600301819055506118228234612e1190919063ffffffff16565b90503373ffffffffffffffffffffffffffffffffffffffff166108fc829081150290604051600060405180830381858888f1935050505015801561186a573d6000803e3d6000fd5b50813373ffffffffffffffffffffffffffffffffffffffff16857f668f87382dcea2e4a74b99e8f03d2487e26ce835912268d0576dc104d7540155426118b98842612d8990919063ffffffff16565b604051808381526020018281526020019250505060405180910390a450505050565b6000600380549050905090565b6000600180549050905090565b6118fe3361262c565b1515611998576040517f08c379a00000000000000000000000000000000000000000000000000000000081526004018080602001828103825260388152602001807f537570657241646d696e526f6c653a2063616c6c657220646f6573206e6f742081526020017f686176652074686520537570657241646d696e20726f6c65000000000000000081525060400191505060405180910390fd5b6119a1816111da565b1515611a15576040517f08c379a000000000000000000000000000000000000000000000000000000000815260040180806020018281038252601a8152602001807f74686520506c61636520696420646f65736e277420657869737400000000000081525060200191505060405180910390fd5b611a1e81610aca565b60016002811115611a2b57fe5b6004600083815260200190815260200160002060010160009054906101000a900460ff166002811115611a5a57fe5b141515611acf576040517f08c379a00000000000000000000000000000000000000000000000000000000081526004018080602001828103825260168152602001807f74686520506c616365206973206f6e2072656e7465640000000000000000000081525060200191505060405180910390fd5b60006002811115611adc57fe5b6004600083815260200190815260200160002060010160009054906101000a900460ff166002811115611b0b57fe5b5050807fbf81cc4131797e921b05092ec8438e36ab652dc65c84823cf0c37d07f2500c4460405160405180910390a250565b611b463361262c565b1515611be0576040517f08c379a00000000000000000000000000000000000000000000000000000000081526004018080602001828103825260388152602001807f537570657241646d696e526f6c653a2063616c6c657220646f6573206e6f742081526020017f686176652074686520537570657241646d696e20726f6c65000000000000000081525060400191505060405180910390fd5b60008214151515611c59576040517f08c379a000000000000000000000000000000000000000000000000000000000815260040180806020018281038252601b8152602001807f74686520506c6163652069642073686f756c646e27742062652030000000000081525060200191505060405180910390fd5b611c62826111da565b151515611cd7576040517f08c379a000000000000000000000000000000000000000000000000000000000815260040180806020018281038252601a8152602001807f74686520506c61636520696420616c726561647920657869737400000000000081525060200191505060405180910390fd5b60c06040519081016040528083815260200160016002811115611cf657fe5b8152602001600073ffffffffffffffffffffffffffffffffffffffff1681526020016000815260200160008152602001611d3f655af3107a400084612cca90919063ffffffff16565b815250600460008481526020019081526020016000206000820151816000015560208201518160010160006101000a81548160ff02191690836002811115611d8357fe5b021790555060408201518160010160016101000a81548173ffffffffffffffffffffffffffffffffffffffff021916908373ffffffffffffffffffffffffffffffffffffffff160217905550606082015181600201556080820151816003015560a08201518160040155905050600582908060018154018082558091505090600182039060005260206000200160009091929091909150555080827f2331cede15ff47c5b14583bf2185d3a8e0486bf7a15a095df016a3a372d6f5a360405160405180910390a35050565b6000611e59826111da565b1515611ecd576040517f08c379a000000000000000000000000000000000000000000000000000000000815260040180806020018281038252601b8152602001807f74686520706c616365205f6964206973206e6f7420657869737473000000000081525060200191505060405180910390fd5b60046000838152602001908152602001600020600201549050919050565b600080611ef73361262c565b1515611f91576040517f08c379a00000000000000000000000000000000000000000000000000000000081526004018080602001828103825260388152602001807f537570657241646d696e526f6c653a2063616c6c657220646f6573206e6f742081526020017f686176652074686520537570657241646d696e20726f6c65000000000000000081525060400191505060405180910390fd5b611f9a836111da565b151561200e576040517f08c379a000000000000000000000000000000000000000000000000000000000815260040180806020018281038252601a8152602001807f74686520506c61636520696420646f65736e277420657869737400000000000081525060200191505060405180910390fd5b61201783610aca565b6001600281111561202457fe5b6004600085815260200190815260200160002060010160009054906101000a900460ff16600281111561205357fe5b1415156120c8576040517f08c379a00000000000000000000000000000000000000000000000000000000081526004018080602001828103825260168152602001807f74686520506c616365206973206f6e2072656e7465640000000000000000000081525060200191505060405180910390fd5b600460008481526020019081526020016000206000808201600090556001820160006101000a81549060ff02191690556001820160016101000a81549073ffffffffffffffffffffffffffffffffffffffff021916905560028201600090556003820160009055600482016000905550506000915060058054905090505b808210156121c9578260058381548110151561215e57fe5b906000526020600020015414156121c45760056001820381548110151561218157fe5b906000526020600020015460058381548110151561219b57fe5b906000526020600020018190555060058054809190600190036121be9190613135565b506121c9565b612146565b827f6447705b245c4df883721b31769004983553b96bf2a33db55dc12320674eab5560405160405180910390a2505050565b6122043361262c565b151561229e576040517f08c379a00000000000000000000000000000000000000000000000000000000081526004018080602001828103825260388152602001807f537570657241646d696e526f6c653a2063616c6c657220646f6573206e6f742081526020017f686176652074686520537570657241646d696e20726f6c65000000000000000081525060400191505060405180910390fd5b6122a781612e96565b50565b60006122b5826111da565b1515612329576040517f08c379a000000000000000000000000000000000000000000000000000000000815260040180806020018281038252601b8152602001807f74686520706c616365205f6964206973206e6f7420657869737473000000000081525060200191505060405180910390fd5b60046000838152602001908152602001600020600301549050919050565b6123503361262c565b15156123ea576040517f08c379a00000000000000000000000000000000000000000000000000000000081526004018080602001828103825260388152602001807f537570657241646d696e526f6c653a2063616c6c657220646f6573206e6f742081526020017f686176652074686520537570657241646d696e20726f6c65000000000000000081525060400191505060405180910390fd5b6123f3816111da565b1515612467576040517f08c379a000000000000000000000000000000000000000000000000000000000815260040180806020018281038252601a8152602001807f74686520506c61636520696420646f65736e277420657869737400000000000081525060200191505060405180910390fd5b61247081610aca565b6000600281111561247d57fe5b6004600083815260200190815260200160002060010160009054906101000a900460ff1660028111156124ac57fe5b141515612521576040517f08c379a00000000000000000000000000000000000000000000000000000000081526004018080602001828103825260178152602001807f74686520506c6163652069736e2774206f6e2053746f7000000000000000000081525060200191505060405180910390fd5b6001600281111561252e57fe5b6004600083815260200190815260200160002060010160009054906101000a900460ff16600281111561255d57fe5b5050807f075e1459ec242132cc26267fd4f6b211c4a843c225c32fb55dcd38b42550425b60405160405180910390a250565b600061259a826111da565b151561260e576040517f08c379a000000000000000000000000000000000000000000000000000000000815260040180806020018281038252601b8152602001807f74686520706c616365205f6964206973206e6f7420657869737473000000000081525060200191505060405180910390fd5b60046000838152602001908152602001600020600401549050919050565b600061264282600061295990919063ffffffff16565b9050919050565b61265d816002612f5690919063ffffffff16565b60038190806001815401808255809150509060018203906000526020600020016000909192909190916101000a81548173ffffffffffffffffffffffffffffffffffffffff021916908373ffffffffffffffffffffffffffffffffffffffff160217905550508073ffffffffffffffffffffffffffffffffffffffff167fee1504a83b6d4a361f4c1dc78ab59bfa30d6a3b6612c403e86bb01ef2984295f60405160405180910390a250565b60008061272083600261295990919063ffffffff16565b15156127ba576040517f08c379a00000000000000000000000000000000000000000000000000000000081526004018080602001828103825260218152602001807f526f6c65733a206163636f756e7420646f6573206e6f74206861766520726f6c81526020017f650000000000000000000000000000000000000000000000000000000000000081525060400191505060405180910390fd5b6127ce83600261303390919063ffffffff16565b600091505b8273ffffffffffffffffffffffffffffffffffffffff166003838154811015156127f957fe5b9060005260206000200160009054906101000a900473ffffffffffffffffffffffffffffffffffffffff1673ffffffffffffffffffffffffffffffffffffffff1614151561284e5781806001019250506127d3565b600380549050905060036001820381548110151561286857fe5b9060005260206000200160009054906101000a900473ffffffffffffffffffffffffffffffffffffffff166003838154811015156128a257fe5b9060005260206000200160006101000a81548173ffffffffffffffffffffffffffffffffffffffff021916908373ffffffffffffffffffffffffffffffffffffffff1602179055506129036001600380549050612e1190919063ffffffff16565b6003816129109190613161565b508273ffffffffffffffffffffffffffffffffffffffff167f270d9b30cf5b0793bbfd54c9d5b94aeb49462b8148399000265144a8722da6b660405160405180910390a2505050565b60008073ffffffffffffffffffffffffffffffffffffffff168273ffffffffffffffffffffffffffffffffffffffff1614151515612a25576040517f08c379a00000000000000000000000000000000000000000000000000000000081526004018080602001828103825260228152602001807f526f6c65733a206163636f756e7420697320746865207a65726f20616464726581526020017f737300000000000000000000000000000000000000000000000000000000000081525060400191505060405180910390fd5b8260000160008373ffffffffffffffffffffffffffffffffffffffff1673ffffffffffffffffffffffffffffffffffffffff16815260200190815260200160002060009054906101000a900460ff16905092915050565b600080612a9383600061295990919063ffffffff16565b1515612b2d576040517f08c379a00000000000000000000000000000000000000000000000000000000081526004018080602001828103825260218152602001807f526f6c65733a206163636f756e7420646f6573206e6f74206861766520726f6c81526020017f650000000000000000000000000000000000000000000000000000000000000081525060400191505060405180910390fd5b612b4183600061303390919063ffffffff16565b600091505b8273ffffffffffffffffffffffffffffffffffffffff16600183815481101515612b6c57fe5b9060005260206000200160009054906101000a900473ffffffffffffffffffffffffffffffffffffffff1673ffffffffffffffffffffffffffffffffffffffff16141515612bc1578180600101925050612b46565b60018054905090506001808203815481101515612bda57fe5b9060005260206000200160009054906101000a900473ffffffffffffffffffffffffffffffffffffffff16600183815481101515612c1457fe5b9060005260206000200160006101000a81548173ffffffffffffffffffffffffffffffffffffffff021916908373ffffffffffffffffffffffffffffffffffffffff160217905550612c7460018080549050612e1190919063ffffffff16565b600181612c819190613161565b508273ffffffffffffffffffffffffffffffffffffffff167ffb445f6ec07647d2bb7af72821e6b8b7303ec375e934d4a338d38ed5846c2d5660405160405180910390a2505050565b600080831415612cdd5760009050612d68565b8183029050818382811515612cee57fe5b04141515612d64576040517f08c379a00000000000000000000000000000000000000000000000000000000081526004018080602001828103825260138152602001807f536166654d617468206d756c206661696c65640000000000000000000000000081525060200191505060405180910390fd5b8090505b92915050565b6000808284811515612d7c57fe5b0490508091505092915050565b60008183019050828110151515612e08576040517f08c379a00000000000000000000000000000000000000000000000000000000081526004018080602001828103825260138152602001807f536166654d61746820616464206661696c65640000000000000000000000000081525060200191505060405180910390fd5b80905092915050565b6000828211151515612e8b576040517f08c379a00000000000000000000000000000000000000000000000000000000081526004018080602001828103825260138152602001807f536166654d61746820737562206661696c65640000000000000000000000000081525060200191505060405180910390fd5b818303905092915050565b612eaa816000612f5690919063ffffffff16565b60018190806001815401808255809150509060018203906000526020600020016000909192909190916101000a81548173ffffffffffffffffffffffffffffffffffffffff021916908373ffffffffffffffffffffffffffffffffffffffff160217905550508073ffffffffffffffffffffffffffffffffffffffff167f286f82d2b1e37b5e9f33e455d014b4a5f6c29388e6e41e1281d4c83e04f4265560405160405180910390a250565b612f608282612959565b151515612fd5576040517f08c379a000000000000000000000000000000000000000000000000000000000815260040180806020018281038252601f8152602001807f526f6c65733a206163636f756e7420616c72656164792068617320726f6c650081525060200191505060405180910390fd5b60018260000160008373ffffffffffffffffffffffffffffffffffffffff1673ffffffffffffffffffffffffffffffffffffffff16815260200190815260200160002060006101000a81548160ff0219169083151502179055505050565b61303d8282612959565b15156130d7576040517f08c379a00000000000000000000000000000000000000000000000000000000081526004018080602001828103825260218152602001807f526f6c65733a206163636f756e7420646f6573206e6f74206861766520726f6c81526020017f650000000000000000000000000000000000000000000000000000000000000081525060400191505060405180910390fd5b60008260000160008373ffffffffffffffffffffffffffffffffffffffff1673ffffffffffffffffffffffffffffffffffffffff16815260200190815260200160002060006101000a81548160ff0219169083151502179055505050565b81548183558181111561315c5781836000526020600020918201910161315b919061318d565b5b505050565b81548183558181111561318857818360005260206000209182019101613187919061318d565b5b505050565b6131af91905b808211156131ab576000816000905550600101613193565b5090565b905600a165627a7a72305820c771982a3fb9818b3c24c9da2d7b339f74123343efd99cc8f64290eb93e9745c0029",
  "source": "pragma solidity 0.4.24;\n\nimport \"./Roles.sol\";\n\n/**\n * @title The rent main contract\n * @dev Defines a contract able to rent and return\n * @dev  now \n */\ncontract Renting is WhitelistedRole {\n    using SafeMath for uint256;\n\n    // created after the rent-function was executed\n    event LogRented(\n        uint256 indexed id,\n        address indexed user,\n        uint256 rentedFrom,         // \n        uint256 rentedUntil,        // \n        uint256 indexed totalPrice  // \n    );\n\n    event LogNewPlace(uint256 indexed id, uint256 indexed perPrice);\n\n    event LogRmPlace(uint256 indexed id);\n\n    event LogFreeToStop(uint256 indexed id);\n\n    event LogStopToFree(uint256 indexed id);\n\n    event LogWorkToFree(uint256 indexed id, uint256 beforeBegin, uint256 beforeEnd);\n\n    event LogFreeToWork(\n        uint256 indexed id,\n        uint256 begin,\n        uint256 end,\n        address  indexed user,\n        uint256 indexed totalPrice\n    );\n\n    /**\n     * @dev \n     */\n    struct Place {\n        uint256 id;         // id\n        Status status;      // \n        address user;       // UnInitFree0x0\n        uint256 begin;      // UnixUnInitFree0\n        uint256 end;        // UnixUnInitFree0\n        uint256 perPrice;   // perPrice Wei/h Id\n    }\n\n    mapping (uint256=>Place) places;\n    uint256[] ids;\n\n    /**\n     * @dev \n     * @dev FreestatusOnWork\n     * @dev \n     */\n    enum Status {\n        Stop,\n        Free,\n        OnWork\n    }\n\n    // admin\n\n    /**\n     * @dev addPlace admin new a Place\n     * @param _id the new Place id, It must not be 0.\n     * @param _perPrice 0.0001 ETH1ETH10000 Wei 18\n     * @notice Only admin can execute it.\n     * @notice after this, user can rent it.\n     */\n    function addPlace(uint256 _id, uint256 _perPrice) public onlySuperAdmin {\n        require(_id != 0, \"the Place id shouldn't be 0\"); // isPlaceExist 0 \n        require(!isPlaceExist(_id), \"the Place id already exist\");\n        places[_id] = Place({\n            id: _id,\n            status: Status.Free,\n            user: address(0),\n            begin: 0,\n            end: 0,\n            perPrice: _perPrice.mul(10**14)\n        });\n        ids.push(_id);\n\n        emit LogNewPlace(_id, _perPrice);\n    }\n\n    /**\n     * @dev rmPlace \n     * @param _id the id of the Place that will be deleted.\n     * @notice Only admin can execute it.\n     * @notice Only the `Free` Place can be deleted\n     */\n    function rmPlace(uint256 _id) public onlySuperAdmin {\n        require(isPlaceExist(_id), \"the Place id doesn't exist\");\n        upgradePlaceStatus(_id);\n\n        require(places[_id].status == Status.Free, \"the Place is on rented\");\n\n        delete places[_id];\n\n        uint256 i = 0;\n        uint256 length = ids.length;\n        while (i < length) {\n            if (ids[i] == _id) {\n                ids[i] = ids[length-1];\n                ids.length--;\n                break;\n            }\n        }\n\n        emit LogRmPlace(_id);\n    }\n\n    /**\n     * @dev stopPlace \n     * @param _id the id of the Place that will be stoped.\n     * @notice Only admin can execute it.\n     * @notice Only the `Free` Place can be stoped\n     */\n    function stopPlace(uint256 _id) public onlySuperAdmin {\n        require(isPlaceExist(_id), \"the Place id doesn't exist\");\n        upgradePlaceStatus(_id);\n\n        require(places[_id].status == Status.Free, \"the Place is on rented\");\n        places[_id].status == Status.Stop;\n\n        emit LogFreeToStop(_id);\n    }\n\n    /**\n     * @dev unStopPlace \n     * @param _id the id of the Place that will be unstoped.\n     * @notice Only admin can execute it.\n     * @notice Only the `Stop` Place can be upstoped\n     */\n    function unStopPlace(uint256 _id) public onlySuperAdmin {\n        require(isPlaceExist(_id), \"the Place id doesn't exist\");\n        upgradePlaceStatus(_id);\n\n        require(places[_id].status == Status.Stop, \"the Place isn't on Stop\");\n        places[_id].status == Status.Free;\n\n        emit LogStopToFree(_id);\n    }\n\n    /**\n     * @dev withdraw \n     * @param _amount the amount of Wei will be withdraw.\n     * @notice Only admin can execute it.\n     */\n    function withdraw(uint256 _amount) public onlySuperAdmin {\n        msg.sender.transfer(_amount);\n    }\n\n    // normal\n    /**\n     * @dev rent user rent the Place\n     * @param _id the Place id\n     * @param _secondsToRent the time of rental in seconds\n     * @notice Only Whitelisted can execute it.\n     */\n    function rent(uint256 _id, uint256 _secondsToRent) external payable onlyWhitelisted {\n        require(isPlaceExist(_id), \"the Place id doesn't exist\");\n        upgradePlaceStatus(_id);\n        require(places[_id].status == Status.Free, \"the Place's status is not free\");\n\n        uint256 _price = getPrice(_id, _secondsToRent);\n        require(msg.value >= _price, \"the fee is not enough\");\n\n        places[_id].status = Status.OnWork;\n        places[_id].user = msg.sender;\n        places[_id].begin = now;\n        places[_id].end = now.add(_secondsToRent);\n\n\n        uint256 _overfee = msg.value.sub(_price);\n        msg.sender.transfer(_overfee);\n\n        emit LogFreeToWork(_id, now, now.add(_secondsToRent), msg.sender, _price);\n    }\n\n    /**\n     * @dev upgradePlaceStatus upgrade the status of the Place\n     * @param _id the Place id\n     * @dev \n     * @dev  now \n     * @dev  start\n     */\n    function upgradePlaceStatus(uint256 _id) public {\n        require(isPlaceExist(_id), \"the Place id doesn't exist\");\n        if (places[_id].status != Status.OnWork) {\n            return;\n        } else if (places[_id].end > now) {\n            return;\n        } else {\n            places[_id].status = Status.Free;\n            uint256 _begin = places[_id].begin;\n            uint256 _end = places[_id].end;\n            places[_id].begin = 0;\n            places[_id].end = 0;\n\n            emit LogWorkToFree(_id, _begin, _end);\n        }\n    }\n\n    /**\n     * @dev upgradeAllPlaceStatus upgrade the status of all Place.\n     * @notice if gas is too high, use upgradeAllPlaceStatus2\n     */\n    function upgradeAllPlaceStatus() public {\n        for(uint256 i = 0; i < ids.length; i++) {\n            uint256 _id = ids[i];\n            upgradePlaceStatus(_id);\n        }\n    }\n\n    /**\n     * @dev upgradeAllPlaceStatus2 upgrade the status of all Place.\n     * @param _a the begin Place'index that want to be upgraded\n     * @param _b the end Place'index that want to be upgraded\n     * @notice upgrade the Place's status that is in ids[_a, _b]\n     */\n    function upgradeAllPlaceStatus2(uint256 _a, uint256 _b) public {\n        require(_a < _b, \"error order\");\n        require(_b < ids.length, \"should smaller than ids.length\");\n        for(uint256 i = _a; i <= _b; i++) {\n            uint256 _id = ids[i];\n            upgradePlaceStatus(_id);\n        }\n    }\n\n    // view\n\n    /**\n     * @dev getPrice the total price for rentinng the Place\n     * @param _id the Place id\n     * @param _secondsToRent the duration of rent the Place\n     * @return _price price to be payed for renting the Place\n     */\n    function getPrice(uint256 _id, uint256 _secondsToRent) public view returns (uint256) {\n        require(isPlaceExist(_id), \"the Place id doesn't exist\");\n        uint256 _price = places[_id].perPrice.mul(_secondsToRent).div(3600);\n        return _price;\n    }\n\n    /**\n     * @dev getStateCount get the amount of Place that is in this Status. returns the current amount of states\n     * @param _status the Status\n     * @return _amount amount of states of a device\n     * @notice make sure  upgradeAllPlaceStatus() is executed before call this function, or the amount is not accurate;\n     */\n    function getStateCount(Status _status) external view returns (uint256) {\n        uint256 _amount = 0;\n        for(uint256 i = 0; i < ids.length; i++) {\n            uint256 _id = ids[i];\n            if (places[_id].status == _status) {\n                _amount++;\n            }\n        }\n        return _amount;\n    }\n\n    /**\n     * @dev getTotalAmount get the total amount of Places\n     * @return the amount of Places\n     */\n    function getTotalAmount() external view returns (uint256) {\n        return ids.length;\n    }\n\n    /**\n     * @dev getIdFromIndex get id from ids array\n     * @param _index the index of ids array\n     * @return element of ids, that is Place's id\n     */\n    function getIdFromIndex(uint256 _index) external view returns (uint256) {\n        require(_index < ids.length, \"error _index\");\n        return ids[_index];\n    }\n\n    /**\n     * @dev getPlaceInfo get the detail infomation of a Place\n     * @param _id Place id\n     * @return status, user, begin and end infomation of the Place.\n     */\n    function getPlaceInfo(uint256 _id) external view returns (Status _status, address _user, uint256 _begin, uint256 _end, uint256 _perPrice) {\n        require(isPlaceExist(_id), \"the place _id is not exists\");\n\n        _status = places[_id].status;\n        _user = places[_id].user;\n        _begin = places[_id].begin;\n        _end = places[_id].end;\n        _perPrice = places[_id].perPrice;\n    }\n\n    /**\n     * @dev getPlaceState get the State infomation of a Place\n     * @param _id Place id\n     * @return status of the Place.\n     * @notice 0 stand for Stop; 1 stand for Free, 2 stand for OnWork\n     */\n    function getPlaceState(uint256 _id) public view returns(Status) {\n        require(isPlaceExist(_id), \"the place _id is not exists\");\n\n        return places[_id].status;\n    }\n\n    /**\n     * @dev getPlaceUser get the user infomation of a Place\n     * @param _id Place id\n     * @return user address of the Place.\n     */\n    function getPlaceUser(uint256 _id) public view returns(address) {\n        require(isPlaceExist(_id), \"the place _id is not exists\");\n\n        return places[_id].user;\n    }\n\n    /**\n     * @dev getPlaceBegin get the begin infomation of a Place\n     * @param _id Place id\n     * @return begin's Unix timestamp of the Place.\n     */\n    function getPlaceBegin(uint256 _id) public view returns(uint256) {\n        require(isPlaceExist(_id), \"the place _id is not exists\");\n\n        return places[_id].begin;\n    }\n\n    /**\n     * @dev getPlaceEnd get the end infomation of a Place\n     * @param _id Place id\n     * @return end's Unix timestamp of the Place.\n     */\n    function getPlaceEnd(uint256 _id) public view returns(uint256) {\n        require(isPlaceExist(_id), \"the place _id is not exists\");\n\n        return places[_id].end;\n    }\n\n    /**\n     * @dev getPlacePerPrice get the perPrice infomation of a Place\n     * @param _id Place id\n     * @return the perPrice of the Place.\n     */\n    function getPlacePerPrice(uint256 _id) public view returns(uint256) {\n        require(isPlaceExist(_id), \"the place _id is not exists\");\n\n        return places[_id].perPrice;\n    }\n\n    /**\n     * @dev isPlaceExist judge whether a Place exist\n     * @param _id Place id\n     * @return if exist, true\n     */\n    function isPlaceExist(uint256 _id) public view returns (bool) {\n        if(places[_id].id != 0) {\n            return true;\n        } else {\n            return false;\n        }\n    }\n}",
  "sourcePath": "/home/flyq/workspaces/flyq/lock_contract/contracts/Renting.sol",
  "compiler": {
    "name": "solc",
    "version": "0.4.24+commit.e67f0147.Emscripten.clang"
  },
  "schemaVersion": "3.0.16",
  "updatedAt": "2020-02-21T09:11:06.846Z",
  "devdoc": {
    "methods": {
      "addPlace(uint256,uint256)": {
        "details": "addPlace admin new a Place",
        "params": {
          "_id": "the new Place id, It must not be 0.",
          "_perPrice": "0.0001 ETH1ETH10000 Wei 18"
        }
      },
      "addSuperAdmin(address)": {
        "details": "addSuperAdmin add another address to super admin",
        "params": {
          "account": "the address that will be added"
        }
      },
      "addWhitelisted(address)": {
        "details": "addWhitelisted add another address to white list",
        "params": {
          "account": "the address that will be added"
        }
      },
      "getIdFromIndex(uint256)": {
        "details": "getIdFromIndex get id from ids array",
        "params": {
          "_index": "the index of ids array"
        },
        "return": "element of ids, that is Place's id"
      },
      "getPlaceBegin(uint256)": {
        "details": "getPlaceBegin get the begin infomation of a Place",
        "params": {
          "_id": "Place id"
        },
        "return": "begin's Unix timestamp of the Place."
      },
      "getPlaceEnd(uint256)": {
        "details": "getPlaceEnd get the end infomation of a Place",
        "params": {
          "_id": "Place id"
        },
        "return": "end's Unix timestamp of the Place."
      },
      "getPlaceInfo(uint256)": {
        "details": "getPlaceInfo get the detail infomation of a Place",
        "params": {
          "_id": "Place id"
        },
        "return": "status, user, begin and end infomation of the Place."
      },
      "getPlacePerPrice(uint256)": {
        "details": "getPlacePerPrice get the perPrice infomation of a Place",
        "params": {
          "_id": "Place id"
        },
        "return": "the perPrice of the Place."
      },
      "getPlaceState(uint256)": {
        "details": "getPlaceState get the State infomation of a Place",
        "params": {
          "_id": "Place id"
        },
        "return": "status of the Place."
      },
      "getPlaceUser(uint256)": {
        "details": "getPlaceUser get the user infomation of a Place",
        "params": {
          "_id": "Place id"
        },
        "return": "user address of the Place."
      },
      "getPrice(uint256,uint256)": {
        "details": "getPrice the total price for rentinng the Place",
        "params": {
          "_id": "the Place id",
          "_secondsToRent": "the duration of rent the Place"
        },
        "return": "_price price to be payed for renting the Place"
      },
      "getStateCount(uint8)": {
        "details": "getStateCount get the amount of Place that is in this Status. returns the current amount of states",
        "params": {
          "_status": "the Status"
        },
        "return": "_amount amount of states of a device"
      },
      "getTotalAmount()": {
        "details": "getTotalAmount get the total amount of Places",
        "return": "the amount of Places"
      },
      "isPlaceExist(uint256)": {
        "details": "isPlaceExist judge whether a Place exist",
        "params": {
          "_id": "Place id"
        },
        "return": "if exist, true"
      },
      "isSuperAdmin(address)": {
        "details": "isSuperAdmin check if the account is super admin",
        "params": {
          "account": "the address that will be checked"
        },
        "return": "bool, true if account is super admin."
      },
      "isWhitelisted(address)": {
        "details": "isWhitelisted check if the account is in white list",
        "params": {
          "account": "the address that will be checked"
        },
        "return": "bool, return true if account is in white list"
      },
      "removeWhitelisted(address)": {
        "details": "removeWhitelisted remove someone from white list",
        "params": {
          "account": "the address that whill be remove"
        }
      },
      "renounceWhitelistAdmin()": {
        "details": "renounceWhitelistAdmin remove himself super admin"
      },
      "rent(uint256,uint256)": {
        "details": "rent user rent the Place",
        "params": {
          "_id": "the Place id",
          "_secondsToRent": "the time of rental in seconds"
        }
      },
      "rmPlace(uint256)": {
        "details": "rmPlace ",
        "params": {
          "_id": "the id of the Place that will be deleted."
        }
      },
      "stopPlace(uint256)": {
        "details": "stopPlace ",
        "params": {
          "_id": "the id of the Place that will be stoped."
        }
      },
      "superAdminAmount()": {
        "details": "superAdminAmount get the amount of super admin",
        "return": "the amount of super admin"
      },
      "unStopPlace(uint256)": {
        "details": "unStopPlace ",
        "params": {
          "_id": "the id of the Place that will be unstoped."
        }
      },
      "upgradeAllPlaceStatus()": {
        "details": "upgradeAllPlaceStatus upgrade the status of all Place."
      },
      "upgradeAllPlaceStatus2(uint256,uint256)": {
        "details": "upgradeAllPlaceStatus2 upgrade the status of all Place.",
        "params": {
          "_a": "the begin Place'index that want to be upgraded",
          "_b": "the end Place'index that want to be upgraded"
        }
      },
      "upgradePlaceStatus(uint256)": {
        "details": "upgradePlaceStatus upgrade the status of the Place now  start",
        "params": {
          "_id": "the Place id"
        }
      },
      "whitelistedAmount()": {
        "details": "whitelistedAmount get the amount of white list",
        "return": "the amount of white list"
      },
      "withdraw(uint256)": {
        "details": "withdraw ",
        "params": {
          "_amount": "the amount of Wei will be withdraw."
        }
      }
    },
    "title": "The rent main contract"
  },
  "userdoc": {
    "methods": {
      "addPlace(uint256,uint256)": {
        "notice": "Only admin can execute it.after this, user can rent it."
      },
      "addSuperAdmin(address)": {
        "notice": "only super admin can execute this function"
      },
      "addWhitelisted(address)": {
        "notice": "only super admin can execute this function"
      },
      "getPlaceState(uint256)": {
        "notice": "0 stand for Stop; 1 stand for Free, 2 stand for OnWork"
      },
      "getStateCount(uint8)": {
        "notice": "make sure  upgradeAllPlaceStatus() is executed before call this function, or the amount is not accurate;"
      },
      "removeWhitelisted(address)": {
        "notice": "only super admin can execute this function"
      },
      "renounceWhitelistAdmin()": {
        "notice": "only super admin can execute this functionthis function can be executed only when superAdminAmount bigger than 1"
      },
      "rent(uint256,uint256)": {
        "notice": "Only Whitelisted can execute it."
      },
      "rmPlace(uint256)": {
        "notice": "Only admin can execute it.Only the `Free` Place can be deleted"
      },
      "stopPlace(uint256)": {
        "notice": "Only admin can execute it.Only the `Free` Place can be stoped"
      },
      "unStopPlace(uint256)": {
        "notice": "Only admin can execute it.Only the `Stop` Place can be upstoped"
      },
      "upgradeAllPlaceStatus()": {
        "notice": "if gas is too high, use upgradeAllPlaceStatus2"
      },
      "upgradeAllPlaceStatus2(uint256,uint256)": {
        "notice": "upgrade the Place's status that is in ids[_a, _b]"
      },
      "withdraw(uint256)": {
        "notice": "Only admin can execute it."
      }
    }
  }
}