{
  "contractName": "SuperAdminRole",
  "abi": [
    {
      "constant": true,
      "inputs": [
        {
          "name": "",
          "type": "uint256"
        }
      ],
      "name": "superAdminAddress",
      "outputs": [
        {
          "name": "",
          "type": "address"
        }
      ],
      "payable": false,
      "stateMutability": "view",
      "type": "function"
    },
    {
      "inputs": [],
      "payable": false,
      "stateMutability": "nonpayable",
      "type": "constructor"
    },
    {
      "anonymous": false,
      "inputs": [
        {
          "indexed": true,
          "name": "account",
          "type": "address"
        }
      ],
      "name": "SuperAdminAdded",
      "type": "event"
    },
    {
      "anonymous": false,
      "inputs": [
        {
          "indexed": true,
          "name": "account",
          "type": "address"
        }
      ],
      "name": "SuperAdminRemoved",
      "type": "event"
    },
    {
      "constant": true,
      "inputs": [
        {
          "name": "account",
          "type": "address"
        }
      ],
      "name": "isSuperAdmin",
      "outputs": [
        {
          "name": "",
          "type": "bool"
        }
      ],
      "payable": false,
      "stateMutability": "view",
      "type": "function"
    },
    {
      "constant": true,
      "inputs": [],
      "name": "superAdminAmount",
      "outputs": [
        {
          "name": "",
          "type": "uint256"
        }
      ],
      "payable": false,
      "stateMutability": "view",
      "type": "function"
    },
    {
      "constant": false,
      "inputs": [
        {
          "name": "account",
          "type": "address"
        }
      ],
      "name": "addSuperAdmin",
      "outputs": [],
      "payable": false,
      "stateMutability": "nonpayable",
      "type": "function"
    },
    {
      "constant": false,
      "inputs": [],
      "name": "renounceWhitelistAdmin",
      "outputs": [],
      "payable": false,
      "stateMutability": "nonpayable",
      "type": "function"
    }
  ],
  "bytecode": "0x608060405234801561001057600080fd5b506100293361002e640100000000026401000000009004565b61030a565b61004f8160006100fb64010000000002610918179091906401000000009004565b60018190806001815401808255809150509060018203906000526020600020016000909192909190916101000a81548173ffffffffffffffffffffffffffffffffffffffff021916908373ffffffffffffffffffffffffffffffffffffffff160217905550508073ffffffffffffffffffffffffffffffffffffffff167f286f82d2b1e37b5e9f33e455d014b4a5f6c29388e6e41e1281d4c83e04f4265560405160405180910390a250565b61011482826101e7640100000000026401000000009004565b151515610189576040517f08c379a000000000000000000000000000000000000000000000000000000000815260040180806020018281038252601f8152602001807f526f6c65733a206163636f756e7420616c72656164792068617320726f6c650081525060200191505060405180910390fd5b60018260000160008373ffffffffffffffffffffffffffffffffffffffff1673ffffffffffffffffffffffffffffffffffffffff16815260200190815260200160002060006101000a81548160ff0219169083151502179055505050565b60008073ffffffffffffffffffffffffffffffffffffffff168273ffffffffffffffffffffffffffffffffffffffff16141515156102b3576040517f08c379a00000000000000000000000000000000000000000000000000000000081526004018080602001828103825260228152602001807f526f6c65733a206163636f756e7420697320746865207a65726f20616464726581526020017f737300000000000000000000000000000000000000000000000000000000000081525060400191505060405180910390fd5b8260000160008373ffffffffffffffffffffffffffffffffffffffff1673ffffffffffffffffffffffffffffffffffffffff16815260200190815260200160002060009054906101000a900460ff16905092915050565b610a72806103196000396000f30060806040526004361061006d576000357c0100000000000000000000000000000000000000000000000000000000900463ffffffff16806334b485ea146100725780634c5a628c146100df578063a0d622b2146100f6578063b3292ff014610121578063df7f453b14610164575b600080fd5b34801561007e57600080fd5b5061009d600480360381019080803590602001909291905050506101bf565b604051808273ffffffffffffffffffffffffffffffffffffffff1673ffffffffffffffffffffffffffffffffffffffff16815260200191505060405180910390f35b3480156100eb57600080fd5b506100f46101fd565b005b34801561010257600080fd5b5061010b610287565b6040518082815260200191505060405180910390f35b34801561012d57600080fd5b50610162600480360381019080803573ffffffffffffffffffffffffffffffffffffffff169060200190929190505050610294565b005b34801561017057600080fd5b506101a5600480360381019080803573ffffffffffffffffffffffffffffffffffffffff169060200190929190505050610343565b604051808215151515815260200191505060405180910390f35b6001818154811015156101ce57fe5b906000526020600020016000915054906101000a900473ffffffffffffffffffffffffffffffffffffffff1681565b6001610207610287565b11151561027c576040517f08c379a000000000000000000000000000000000000000000000000000000000815260040180806020018281038252601e8152602001807f537570657241646d696e732073686f756c64206d6f7265207468616e2030000081525060200191505060405180910390fd5b61028533610360565b565b6000600180549050905090565b61029d33610343565b1515610337576040517f08c379a00000000000000000000000000000000000000000000000000000000081526004018080602001828103825260388152602001807f537570657241646d696e526f6c653a2063616c6c657220646f6573206e6f742081526020017f686176652074686520537570657241646d696e20726f6c65000000000000000081525060400191505060405180910390fd5b610340816105ae565b50565b600061035982600061066e90919063ffffffff16565b9050919050565b60008061037783600061066e90919063ffffffff16565b1515610411576040517f08c379a00000000000000000000000000000000000000000000000000000000081526004018080602001828103825260218152602001807f526f6c65733a206163636f756e7420646f6573206e6f74206861766520726f6c81526020017f650000000000000000000000000000000000000000000000000000000000000081525060400191505060405180910390fd5b61042583600061079190919063ffffffff16565b600091505b8273ffffffffffffffffffffffffffffffffffffffff1660018381548110151561045057fe5b9060005260206000200160009054906101000a900473ffffffffffffffffffffffffffffffffffffffff1673ffffffffffffffffffffffffffffffffffffffff161415156104a557818060010192505061042a565b600180549050905060018082038154811015156104be57fe5b9060005260206000200160009054906101000a900473ffffffffffffffffffffffffffffffffffffffff166001838154811015156104f857fe5b9060005260206000200160006101000a81548173ffffffffffffffffffffffffffffffffffffffff021916908373ffffffffffffffffffffffffffffffffffffffff1602179055506105586001808054905061089390919063ffffffff16565b60018161056591906109f5565b508273ffffffffffffffffffffffffffffffffffffffff167ffb445f6ec07647d2bb7af72821e6b8b7303ec375e934d4a338d38ed5846c2d5660405160405180910390a2505050565b6105c281600061091890919063ffffffff16565b60018190806001815401808255809150509060018203906000526020600020016000909192909190916101000a81548173ffffffffffffffffffffffffffffffffffffffff021916908373ffffffffffffffffffffffffffffffffffffffff160217905550508073ffffffffffffffffffffffffffffffffffffffff167f286f82d2b1e37b5e9f33e455d014b4a5f6c29388e6e41e1281d4c83e04f4265560405160405180910390a250565b60008073ffffffffffffffffffffffffffffffffffffffff168273ffffffffffffffffffffffffffffffffffffffff161415151561073a576040517f08c379a00000000000000000000000000000000000000000000000000000000081526004018080602001828103825260228152602001807f526f6c65733a206163636f756e7420697320746865207a65726f20616464726581526020017f737300000000000000000000000000000000000000000000000000000000000081525060400191505060405180910390fd5b8260000160008373ffffffffffffffffffffffffffffffffffffffff1673ffffffffffffffffffffffffffffffffffffffff16815260200190815260200160002060009054906101000a900460ff16905092915050565b61079b828261066e565b1515610835576040517f08c379a00000000000000000000000000000000000000000000000000000000081526004018080602001828103825260218152602001807f526f6c65733a206163636f756e7420646f6573206e6f74206861766520726f6c81526020017f650000000000000000000000000000000000000000000000000000000000000081525060400191505060405180910390fd5b60008260000160008373ffffffffffffffffffffffffffffffffffffffff1673ffffffffffffffffffffffffffffffffffffffff16815260200190815260200160002060006101000a81548160ff0219169083151502179055505050565b600082821115151561090d576040517f08c379a00000000000000000000000000000000000000000000000000000000081526004018080602001828103825260138152602001807f536166654d61746820737562206661696c65640000000000000000000000000081525060200191505060405180910390fd5b818303905092915050565b610922828261066e565b151515610997576040517f08c379a000000000000000000000000000000000000000000000000000000000815260040180806020018281038252601f8152602001807f526f6c65733a206163636f756e7420616c72656164792068617320726f6c650081525060200191505060405180910390fd5b60018260000160008373ffffffffffffffffffffffffffffffffffffffff1673ffffffffffffffffffffffffffffffffffffffff16815260200190815260200160002060006101000a81548160ff0219169083151502179055505050565b815481835581811115610a1c57818360005260206000209182019101610a1b9190610a21565b5b505050565b610a4391905b80821115610a3f576000816000905550600101610a27565b5090565b905600a165627a7a72305820060bbe3bdc932a9862e6b85e02c5b333a89e8b26ef81a85acc6c686f492c17dd0029",
  "source": "pragma solidity 0.4.24;\n\nimport \"./SafeMath.sol\";\n\n/**\n * @title Roles\n * @dev Library for managing addresses assigned to a Role.\n * @dev more info: https://github.com/OpenZeppelin/openzeppelin-contracts/tree/release-v2.3.0/contracts/access\n */\nlibrary Roles {\n    struct Role {\n        mapping (address => bool) bearer;\n    }\n\n    /**\n     * @dev Give an account access to this role.\n     */\n    function add(Role storage role, address account) internal {\n        require(!has(role, account), \"Roles: account already has role\");\n        role.bearer[account] = true;\n    }\n\n    /**\n     * @dev Remove an account's access to this role.\n     */\n    function remove(Role storage role, address account) internal {\n        require(has(role, account), \"Roles: account does not have role\");\n        role.bearer[account] = false;\n    }\n\n    /**\n     * @dev Check if an account has this role.\n     * @return bool\n     */\n    function has(Role storage role, address account) internal view returns (bool) {\n        require(account != address(0), \"Roles: account is the zero address\");\n        return role.bearer[account];\n    }\n}\n\n/**\n * @title SuperAdminRole\n * @dev SuperAdmins are responsible for assigning and removing other Role accounts.\n */\ncontract SuperAdminRole {\n    using Roles for Roles.Role;\n    using SafeMath for uint256;\n\n    event SuperAdminAdded(address indexed account);\n    event SuperAdminRemoved(address indexed account);\n\n    Roles.Role private _SuperAdmins;\n    address[] public superAdminAddress;\n\n    constructor () public {\n        _addSuperAdmin(msg.sender);\n    }\n\n    modifier onlySuperAdmin() {\n        require(isSuperAdmin(msg.sender), \"SuperAdminRole: caller does not have the SuperAdmin role\");\n        _;\n    }\n\n    /**\n     * @dev isSuperAdmin check if the account is super admin\n     * @param account the address that will be checked\n     * @return bool, true if account is super admin.\n     */\n    function isSuperAdmin(address account) public view returns (bool) {\n        return _SuperAdmins.has(account);\n    }\n\n    /**\n     * @dev superAdminAmount get the amount of super admin\n     * @return the amount of super admin\n     */\n    function superAdminAmount() public view returns (uint256) {\n        return superAdminAddress.length;\n    }\n\n    /**\n     * @dev addSuperAdmin add another address to super admin\n     * @param account the address that will be added\n     * @notice only super admin can execute this function\n     */\n    function addSuperAdmin(address account) public onlySuperAdmin {\n        _addSuperAdmin(account);\n    }\n\n    /**\n     * @dev renounceWhitelistAdmin remove himself super admin\n     * @notice only super admin can execute this function\n     * @notice this function can be executed only when superAdminAmount bigger than 1\n     */\n    function renounceWhitelistAdmin() public {\n        require(superAdminAmount() > 1, \"SuperAdmins should more than 0\");\n        _removeSuperAdmin(msg.sender);\n    }\n\n    function _addSuperAdmin(address account) internal {\n        _SuperAdmins.add(account);\n        superAdminAddress.push(account);\n\n        emit SuperAdminAdded(account);\n    }\n\n    function _removeSuperAdmin(address account) internal {\n        require(_SuperAdmins.has(account), \"Roles: account does not have role\");\n\n        _SuperAdmins.remove(account);\n\n        uint256 _i = 0;\n        while (superAdminAddress[_i] != account) {\n            _i++;\n        }\n        uint256 _length = superAdminAddress.length;\n        superAdminAddress[_i] = superAdminAddress[_length-1];\n        superAdminAddress.length = superAdminAddress.length.sub(1);\n\n        emit SuperAdminRemoved(account);\n    }\n}\n\n\n/**\n * @title WhitelistedRole\n * @dev Whitelisted accounts have been approved by a WhitelistAdmin to perform certain actions (e.g. participate in a\n * crowdsale). This role is special in that the only accounts that can add it are WhitelistAdmins (who can also remove\n * it), and not Whitelisteds themselves.\n */\ncontract WhitelistedRole is SuperAdminRole {\n    using Roles for Roles.Role;\n\n    event WhitelistedAdded(address indexed account);\n    event WhitelistedRemoved(address indexed account);\n\n    Roles.Role private _whitelisteds;\n    address[] public whitelistedAddress;\n\n    modifier onlyWhitelisted() {\n        require(isWhitelisted(msg.sender), \"WhitelistedRole: caller does not have the Whitelisted role\");\n        _;\n    }\n\n    /**\n     * @dev isWhitelisted check if the account is in white list\n     * @param account the address that will be checked\n     * @return bool, return true if account is in white list\n     */\n    function isWhitelisted(address account) public view returns (bool) {\n        return _whitelisteds.has(account);\n    }\n\n    /**\n     * @dev whitelistedAmount get the amount of white list\n     * @return the amount of white list\n     */\n    function whitelistedAmount() public view returns (uint256) {\n        return whitelistedAddress.length;\n    }\n\n    /**\n     * @dev addWhitelisted add another address to white list\n     * @param account the address that will be added\n     * @notice only super admin can execute this function\n     */\n    function addWhitelisted(address account) public onlySuperAdmin {\n        _addWhitelisted(account);\n    }\n\n    /**\n     * @dev removeWhitelisted remove someone from white list\n     * @param account the address that whill be remove\n     * @notice only super admin can execute this function\n     */\n    function removeWhitelisted(address account) public onlySuperAdmin {\n        _removeWhitelisted(account);\n    }\n\n    function _addWhitelisted(address account) internal {\n        _whitelisteds.add(account);\n        whitelistedAddress.push(account);\n\n        emit WhitelistedAdded(account);\n    }\n\n    function _removeWhitelisted(address account) internal {\n        require(_whitelisteds.has(account), \"Roles: account does not have role\");\n\n        _whitelisteds.remove(account);\n\n        uint256 _i = 0;\n        while (whitelistedAddress[_i] != account) {\n            _i++;\n        }\n        uint256 _length = whitelistedAddress.length;\n        whitelistedAddress[_i] = whitelistedAddress[_length-1];\n        whitelistedAddress.length = whitelistedAddress.length.sub(1);\n\n        emit WhitelistedRemoved(account);\n    }\n}",
  "sourcePath": "/home/flyq/workspaces/flyq/lock_contract/contracts/Roles.sol",
  "compiler": {
    "name": "solc",
    "version": "0.4.24+commit.e67f0147.Emscripten.clang"
  },
  "schemaVersion": "3.0.16",
  "updatedAt": "2020-02-21T09:11:06.862Z",
  "devdoc": {
    "methods": {
      "addSuperAdmin(address)": {
        "details": "addSuperAdmin add another address to super admin",
        "params": {
          "account": "the address that will be added"
        }
      },
      "isSuperAdmin(address)": {
        "details": "isSuperAdmin check if the account is super admin",
        "params": {
          "account": "the address that will be checked"
        },
        "return": "bool, true if account is super admin."
      },
      "renounceWhitelistAdmin()": {
        "details": "renounceWhitelistAdmin remove himself super admin"
      },
      "superAdminAmount()": {
        "details": "superAdminAmount get the amount of super admin",
        "return": "the amount of super admin"
      }
    },
    "title": "SuperAdminRole"
  },
  "userdoc": {
    "methods": {
      "addSuperAdmin(address)": {
        "notice": "only super admin can execute this function"
      },
      "renounceWhitelistAdmin()": {
        "notice": "only super admin can execute this functionthis function can be executed only when superAdminAmount bigger than 1"
      }
    }
  }
}