{
  "contractName": "SuperAdminRole",
  "abi": [
    {
      "inputs": [],
      "payable": false,
      "stateMutability": "nonpayable",
      "type": "constructor"
    },
    {
      "anonymous": false,
      "inputs": [
        {
          "indexed": true,
          "name": "account",
          "type": "address"
        }
      ],
      "name": "SuperAdminAdded",
      "type": "event"
    },
    {
      "anonymous": false,
      "inputs": [
        {
          "indexed": true,
          "name": "account",
          "type": "address"
        }
      ],
      "name": "SuperAdminRemoved",
      "type": "event"
    },
    {
      "constant": true,
      "inputs": [
        {
          "name": "account",
          "type": "address"
        }
      ],
      "name": "isSuperAdmin",
      "outputs": [
        {
          "name": "",
          "type": "bool"
        }
      ],
      "payable": false,
      "stateMutability": "view",
      "type": "function"
    },
    {
      "constant": true,
      "inputs": [],
      "name": "superAdminAmount",
      "outputs": [
        {
          "name": "",
          "type": "uint256"
        }
      ],
      "payable": false,
      "stateMutability": "view",
      "type": "function"
    },
    {
      "constant": false,
      "inputs": [
        {
          "name": "account",
          "type": "address"
        }
      ],
      "name": "addSuperAdmin",
      "outputs": [],
      "payable": false,
      "stateMutability": "nonpayable",
      "type": "function"
    },
    {
      "constant": false,
      "inputs": [],
      "name": "renounceWhitelistAdmin",
      "outputs": [],
      "payable": false,
      "stateMutability": "nonpayable",
      "type": "function"
    }
  ],
  "bytecode": "0x608060405234801561001057600080fd5b506100293361002e640100000000026401000000009004565b61034f565b61004f8160006100b86401000000000261062b179091906401000000009004565b610071600180546101a464010000000002610708179091906401000000009004565b508073ffffffffffffffffffffffffffffffffffffffff167f286f82d2b1e37b5e9f33e455d014b4a5f6c29388e6e41e1281d4c83e04f4265560405160405180910390a250565b6100d1828261022c640100000000026401000000009004565b151515610146576040517f08c379a000000000000000000000000000000000000000000000000000000000815260040180806020018281038252601f8152602001807f526f6c65733a206163636f756e7420616c72656164792068617320726f6c650081525060200191505060405180910390fd5b60018260000160008373ffffffffffffffffffffffffffffffffffffffff1673ffffffffffffffffffffffffffffffffffffffff16815260200190815260200160002060006101000a81548160ff0219169083151502179055505050565b60008183019050828110151515610223576040517f08c379a00000000000000000000000000000000000000000000000000000000081526004018080602001828103825260138152602001807f536166654d61746820616464206661696c65640000000000000000000000000081525060200191505060405180910390fd5b80905092915050565b60008073ffffffffffffffffffffffffffffffffffffffff168273ffffffffffffffffffffffffffffffffffffffff16141515156102f8576040517f08c379a00000000000000000000000000000000000000000000000000000000081526004018080602001828103825260228152602001807f526f6c65733a206163636f756e7420697320746865207a65726f20616464726581526020017f737300000000000000000000000000000000000000000000000000000000000081525060400191505060405180910390fd5b8260000160008373ffffffffffffffffffffffffffffffffffffffff1673ffffffffffffffffffffffffffffffffffffffff16815260200190815260200160002060009054906101000a900460ff16905092915050565b6107bc8061035e6000396000f300608060405260043610610062576000357c0100000000000000000000000000000000000000000000000000000000900463ffffffff1680634c5a628c14610067578063a0d622b21461007e578063b3292ff0146100a9578063df7f453b146100ec575b600080fd5b34801561007357600080fd5b5061007c610147565b005b34801561008a57600080fd5b506100936101cb565b6040518082815260200191505060405180910390f35b3480156100b557600080fd5b506100ea600480360381019080803573ffffffffffffffffffffffffffffffffffffffff1690602001909291905050506101d5565b005b3480156100f857600080fd5b5061012d600480360381019080803573ffffffffffffffffffffffffffffffffffffffff169060200190929190505050610284565b604051808215151515815260200191505060405180910390f35b600180541115156101c0576040517f08c379a000000000000000000000000000000000000000000000000000000000815260040180806020018281038252601e8152602001807f537570657241646d696e732073686f756c64206d6f7265207468616e2030000081525060200191505060405180910390fd5b6101c9336102a1565b565b6000600154905090565b6101de33610284565b1515610278576040517f08c379a00000000000000000000000000000000000000000000000000000000081526004018080602001828103825260388152602001807f537570657241646d696e526f6c653a2063616c6c657220646f6573206e6f742081526020017f686176652074686520537570657241646d696e20726f6c65000000000000000081525060400191505060405180910390fd5b61028181610311565b50565b600061029a82600061038190919063ffffffff16565b9050919050565b6102b58160006104a490919063ffffffff16565b6102ca600180546105a690919063ffffffff16565b508073ffffffffffffffffffffffffffffffffffffffff167ffb445f6ec07647d2bb7af72821e6b8b7303ec375e934d4a338d38ed5846c2d5660405160405180910390a250565b61032581600061062b90919063ffffffff16565b61033a6001805461070890919063ffffffff16565b508073ffffffffffffffffffffffffffffffffffffffff167f286f82d2b1e37b5e9f33e455d014b4a5f6c29388e6e41e1281d4c83e04f4265560405160405180910390a250565b60008073ffffffffffffffffffffffffffffffffffffffff168273ffffffffffffffffffffffffffffffffffffffff161415151561044d576040517f08c379a00000000000000000000000000000000000000000000000000000000081526004018080602001828103825260228152602001807f526f6c65733a206163636f756e7420697320746865207a65726f20616464726581526020017f737300000000000000000000000000000000000000000000000000000000000081525060400191505060405180910390fd5b8260000160008373ffffffffffffffffffffffffffffffffffffffff1673ffffffffffffffffffffffffffffffffffffffff16815260200190815260200160002060009054906101000a900460ff16905092915050565b6104ae8282610381565b1515610548576040517f08c379a00000000000000000000000000000000000000000000000000000000081526004018080602001828103825260218152602001807f526f6c65733a206163636f756e7420646f6573206e6f74206861766520726f6c81526020017f650000000000000000000000000000000000000000000000000000000000000081525060400191505060405180910390fd5b60008260000160008373ffffffffffffffffffffffffffffffffffffffff1673ffffffffffffffffffffffffffffffffffffffff16815260200190815260200160002060006101000a81548160ff0219169083151502179055505050565b6000828211151515610620576040517f08c379a00000000000000000000000000000000000000000000000000000000081526004018080602001828103825260138152602001807f536166654d61746820737562206661696c65640000000000000000000000000081525060200191505060405180910390fd5b818303905092915050565b6106358282610381565b1515156106aa576040517f08c379a000000000000000000000000000000000000000000000000000000000815260040180806020018281038252601f8152602001807f526f6c65733a206163636f756e7420616c72656164792068617320726f6c650081525060200191505060405180910390fd5b60018260000160008373ffffffffffffffffffffffffffffffffffffffff1673ffffffffffffffffffffffffffffffffffffffff16815260200190815260200160002060006101000a81548160ff0219169083151502179055505050565b60008183019050828110151515610787576040517f08c379a00000000000000000000000000000000000000000000000000000000081526004018080602001828103825260138152602001807f536166654d61746820616464206661696c65640000000000000000000000000081525060200191505060405180910390fd5b809050929150505600a165627a7a72305820b89b976dd741d89865e691707cbb02739a116123318e1126165a74f41afed5a20029",
  "source": "pragma solidity 0.4.24;\n\nimport \"./SafeMath.sol\";\n\n/**\n * @title Roles\n * @dev Library for managing addresses assigned to a Role.\n * @dev more info: https://github.com/OpenZeppelin/openzeppelin-contracts/tree/release-v2.3.0/contracts/access\n */\nlibrary Roles {\n    struct Role {\n        mapping (address => bool) bearer;\n    }\n\n    /**\n     * @dev Give an account access to this role.\n     */\n    function add(Role storage role, address account) internal {\n        require(!has(role, account), \"Roles: account already has role\");\n        role.bearer[account] = true;\n    }\n\n    /**\n     * @dev Remove an account's access to this role.\n     */\n    function remove(Role storage role, address account) internal {\n        require(has(role, account), \"Roles: account does not have role\");\n        role.bearer[account] = false;\n    }\n\n    /**\n     * @dev Check if an account has this role.\n     * @return bool\n     */\n    function has(Role storage role, address account) internal view returns (bool) {\n        require(account != address(0), \"Roles: account is the zero address\");\n        return role.bearer[account];\n    }\n}\n\n/**\n * @title SuperAdminRole\n * @dev SuperAdmins are responsible for assigning and removing other Role accounts.\n */\ncontract SuperAdminRole {\n    using Roles for Roles.Role;\n    using SafeMath for uint256;\n\n    event SuperAdminAdded(address indexed account);\n    event SuperAdminRemoved(address indexed account);\n\n    Roles.Role private _SuperAdmins;\n    uint256 private _superAdminAmount;\n\n    constructor () public {\n        _addSuperAdmin(msg.sender);\n    }\n\n    modifier onlySuperAdmin() {\n        require(isSuperAdmin(msg.sender), \"SuperAdminRole: caller does not have the SuperAdmin role\");\n        _;\n    }\n\n    function isSuperAdmin(address account) public view returns (bool) {\n        return _SuperAdmins.has(account);\n    }\n\n    function superAdminAmount() public view returns (uint256) {\n        return _superAdminAmount;\n    }\n\n    function addSuperAdmin(address account) public onlySuperAdmin {\n        _addSuperAdmin(account);\n    }\n\n    function renounceWhitelistAdmin() public {\n        require(_superAdminAmount > 1, \"SuperAdmins should more than 0\");\n        _removeSuperAdmin(msg.sender);\n    }\n\n    function _addSuperAdmin(address account) internal {\n        _SuperAdmins.add(account);\n        _superAdminAmount.add(1);\n        emit SuperAdminAdded(account);\n    }\n\n    function _removeSuperAdmin(address account) internal {\n        _SuperAdmins.remove(account);\n        _superAdminAmount.sub(1);\n        emit SuperAdminRemoved(account);\n    }\n}\n\n\n/**\n * @title WhitelistedRole\n * @dev Whitelisted accounts have been approved by a WhitelistAdmin to perform certain actions (e.g. participate in a\n * crowdsale). This role is special in that the only accounts that can add it are WhitelistAdmins (who can also remove\n * it), and not Whitelisteds themselves.\n */\ncontract WhitelistedRole is SuperAdminRole {\n    using Roles for Roles.Role;\n\n    event WhitelistedAdded(address indexed account);\n    event WhitelistedRemoved(address indexed account);\n\n    Roles.Role private _whitelisteds;\n    address[] public whitelistedAddress;\n\n    modifier onlyWhitelisted() {\n        require(isWhitelisted(msg.sender), \"WhitelistedRole: caller does not have the Whitelisted role\");\n        _;\n    }\n\n    function isWhitelisted(address account) public view returns (bool) {\n        return _whitelisteds.has(account);\n    }\n\n    function whitelistedAmount() public view returns (uint256) {\n        return whitelistedAddress.length;\n    }\n\n    function addWhitelisted(address account) public onlySuperAdmin {\n        _addWhitelisted(account);\n    }\n\n    function removeWhitelisted(address account) public onlySuperAdmin {\n        _removeWhitelisted(account);\n    }\n\n    function _addWhitelisted(address account) internal {\n        _whitelisteds.add(account);\n        whitelistedAddress.push(account);\n\n        emit WhitelistedAdded(account);\n    }\n\n    function _removeWhitelisted(address account) internal {\n        _whitelisteds.remove(account);\n\n        require(_whitelisteds.has(account), \"Roles: account does not have role\");\n        uint256 _i = 0;\n        while (whitelistedAddress[_i] != account) {\n            _i++;\n        }\n\n        while (_i < whitelistedAddress.length-1) {\n            whitelistedAddress[_i] = whitelistedAddress[_i+1];\n            _i++;\n        }\n        whitelistedAddress.length--;\n\n        emit WhitelistedRemoved(account);\n    }\n}",
  "sourcePath": "/home/flyq/workspaces/flyq/lock_contract/contracts/Roles.sol",
  "compiler": {
    "name": "solc",
    "version": "0.4.24+commit.e67f0147.Emscripten.clang"
  },
  "schemaVersion": "3.0.16",
  "updatedAt": "2020-02-21T02:43:06.640Z",
  "devdoc": {
    "methods": {},
    "title": "SuperAdminRole"
  },
  "userdoc": {
    "methods": {}
  }
}